:0232F90033B7E9
:0232FB0028F2B7
:0232FD002C752E
:0232FF00233872
:02330100259114
:023303001E7139
:02330500208F17
:023307002DE3B4
:0233090034BAD4
:02330B00345339
:02330D00345F2B
:02330F0034394F
:0233110026850F
:02331300346B19
:0233150019C4D9
:10248300252E32660A000D0E0F0E0F110E0A0A0DCD
:102493000C0D0F0C000A0A0B0A0B0F0A000F0F0F8B
:1024A3000E0B0B0E0E000D0E0F0E0F110E000A0A6F
:1024B3000D0C0D0F0C000A0B0F0E0E0F1010110F49
:1024C300000F0E0D0D0E0C0D000F10111011131037
:1024D300000C0C0F0E0F111100000D0E0F0E10103B
:1024E3000F0C0C001211100F111100111413131102
:1024F300100F000F100F10101311001114131110EF
:102503000F000F100F10100E0D000202060204043C
:102513000C02020602040408040202060202060870
:102523000202020206020404080402020602040470
:1025330008040202060204040C0202040202040458
:102543000202020404040202020404080402020652
:10255300020404080402020202040408040402023E
:10256300040402020602040404040404100804041C
:10257300080404020204020204020202040804041E
:0E258300080802020802020402020204080410
:10320B006038032B020B024B029302BA03100370BC
:10321B0003DC0416049605260574062006E007B8A1
:10322B00082C092C0A4C0AE80C400DC00F701058E2
:0C323B001258149815D018801B801EE05B
:1032DB00900225EEF0A3EFF090022574FFF5F012AB
:0E32EB0005BF45F060077F011233EB80EB2238
:10327F009003117440F0A37401F0A312078E0001A4
:10328F00C2009003187401F0E4A3F07B017A037974
:10329F00117F011210E87D017F0112318B53A23F84
:0132AF0022FC
:1031CC007D877F01122FE07D2D7F03122FE07D87FD
:1031DC007F05122FE07D2D7F07122FE07D2DE4FF60
:1031EC00122FE07D877F02122FE07D2D7F04122F9E
:0F31FC00E07D877F06122FE07D327F02021525CE
:1028F2007F0412149C7F0312149C7F0612149C7F87
:102902000212149C7F0712149C7F0812149C7F05EC
:1029120012149C7F0B12149C7F0D12149C7F0E12BA
:10292200149C1231CC7DB47F01122FE0E4FD7F03B1
:10293200122FE07DB4E4FF122FE07D647F021215B6
:10294200257D507F01122FE07D647F021215257DC7
:10295200B47F01122FE07D647F021215257D507F26
:1029620001122FE07D647F021215257DB47F0112D2
:102972002FE07D647F021215257D2DE4FF122FE0EA
:102982007D647F021215257D2D7F03122FE07D8746
:0A2992007F01122FE07F0102149C68
:102C75007F0112149C7F0412149C7F0312149C7F05
:102C85000612149C7F0712149C7F0812149C7F0562
:102C950012149C7F0B12149C7F0D12149C7F0E1234
:102CA500149CE4900224F0900224E0FFC394845025
:102CB50032EF9024899325E02429F582E43403F545
:102CC50083E0FEA3E0FF122BED900224E090250D9A
:102CD5009375F064A4FFAEF01232DB900224E00499
:102CE500F080C412000E7DC87F021215257F0202F6
:022CF500149C2D
:10233800E4900230F0A3F0A3F07F0112149C7F0414
:1023480012149C7F0612149C7F0212149C7F0712A1
:10235800149C7F0812149C7F0512149C7F0B121486
:102368009C7F0D12149C7F0E12149C1231CC90028B
:1023780030E0C39402504E7DB47F01122FE07D5AA5
:102388007F03122FE07DB47F05122FE07D5A7F076F
:10239800122FE07D327F021215257D877F01122FD3
:1023A800E07D2D7F03122FE07D877F05122FE07DD2
:1023B8002D7F07122FE07D327F0212152590023003
:1023C800E004F080A9900231E0C39402504E7D5A97
:1023D8007F01122FE0E4FD7F03122FE07D5A7F0575
:1023E800122FE0E4FD7F07122FE07D327F021215E5
:1023F800257D877F01122FE07D2D7F03122FE07D41
:10240800877F05122FE07D2D7F07122FE07D327F19
:1024180002121525900231E004F080A9900232E002
:10242800C39402504E7D5AE4FF122FE07D5A7F027A
:10243800122FE07D5A7F04122FE07D5A7F06122F5B
:10244800E07D327F021215257D2DE4FF122FE07DFD
:10245800877F02122FE07D2D7F04122FE07D877F7A
:1024680006122FE07D327F02121525900232E00419
:0B247800F080A91231CC7F0302149CFD
:102591007F0112149C7F0312149C7F0612149C7FEE
:1025A1000212149C7F0712149C7F0812149C7F0551
:1025B10012149C7F0B12149C7F0D12149C7F0E121F
:1025C100149C900363E06050E490024DF090024D42
:1025D100E0FFC3942D400302267AC3745A9FFDE4A1
:1025E100FF122FE090024DE0245AFD7F02122FE0EE
:1025F10090024DE0FD7F04122FE090024DE0FFC3F9
:1026010074B49FFD7F06122FE07D047F0212152511
:1026110090024DE004F080B5900363E0705B1231ED
:10262100CC7D907F02121525E490024DF090024D71
:10263100E0FFC3942D5042EF242DFDE4FF122FE063
:1026410090024DE0FFC374879FFD7F02122FE0903F
:10265100024DE0FFC3742D9FFD7F04122FE0900215
:102661004DE02487FD7F06122FE07D047F021215C5
:102671002590024DE004F080B4900363E0F4F07F14
:042681000402149C9F
:101E71007F0112149C7F0412149C7F0312149C7F17
:101E81000612149C7F0212149C7F0712149C7F0877
:101E910012149C7F0E12149C7F0B12149C7F0D1246
:101EA100149C7DB47F01122FE0E4FD7F03122FE02B
:101EB1007DB47F05122FE0E4FD7F07122FE07D2D19
:101EC100E4FF122FE07D877F02122FE07D2D7F043A
:101ED100122FE07D877F06122FE09002687401F0D7
:101EE100900268E0FFD3942D5027EF242DFD7F044D
:101EF100122FE0900268E0FFC3742D9FFDE4FF12F2
:101F01002FE07D017F02121525900268E004F08028
:101F1100CF9002687401F0900268E0FFD3942D50D5
:101F210027EF2487FD7F06122FE0900268E0FFC3B0
:101F310074879FFD7F02122FE07D017F021215251C
:101F4100900268E004F080CF9002687401F0900282
:101F510068E0FFD3942D5023C3745A9FFD7F041270
:101F61002FE0900268E0FDE4FF122FE07D017F0287
:101F7100121525900268E004F080D3900268740184
:101F8100F0900268E0FFD3942D5025C374B49FFDF7
:101F91007F06122FE0900268E0245AFD7F02122F83
:101FA100E07D017F02121525900268E004F080D1E6
:101FB1009002687401F0900268E0FFD3942D5025DF
:101FC100C374879FFD7F06122FE0900268E024878B
:101FD100FD7F02122FE07D017F021215259002681C
:101FE100E004F080D19002687401F0900268E0FF93
:101FF100D3942D5025C3742D9FFD7F04122FE090A3
:102001000268E0242DFDE4FF122FE07D017F021222
:102011001525900268E004F080D19002687401F007
:10202100900268E0FFD3942D5027EF245AFD7F06DC
:10203100122FE0900268E0FFC374B49FFD7F02128B
:102041002FE07D017F02121525900268E004F080E7
:10205100CF9002687401F0900268E0FDD3942D5096
:10206100237F04122FE0900268E0FFC3745A9FFDA2
:10207100E4FF122FE07D017F02121525900268E036
:0E20810004F080D37D147F02121525021EDBB1
:1019C4001231CC7F0112149C7F0412149C7F0312E9
:1019D400149C7F0612149C7F0212149C7F0712141D
:1019E4009C7F0812149C7F0B12149C7F0D12149C74
:1019F4007F0512149C7D327F021215257DB47F0170
:101A0400122FE0E4FD7F03122FE07DB47F05122F37
:101A1400E0E4FD7F07122FE07D2DE4FF122FE07D2F
:101A2400877F02122FE07D2D7F04122FE07D877FB8
:101A340006122FE09002837401F0900283E0FFD33A
:101A4400942D5027EF242DFDE4FF122FE090028304
:101A5400E0FFC3742D9FFD7F04122FE07D017F0200
:101A6400121525900283E004F080CF7D017F0212DD
:101A740015259002837401F0900283E0FFD3942D26
:101A84005027EF2487FD7F02122FE0900283E0FFAE
:101A9400C374879FFD7F06122FE07D017F0212151C
:101AA40025900283E004F080CF7D017F021215258A
:101AB4009002837401F0900283E0FFD3942D5023AD
:101AC400C3745A9FFDE4FF122FE0900283E0FD7F70
:101AD40004122FE07D017F02121525900283E00499
:101AE400F080D37D017F021215259002837401F0EA
:101AF400900283E0FFD3942D5025C374B49FFD7FDF
:101B040002122FE0900283E0245AFD7F06122FE098
:101B14007D017F02121525900283E004F080D17DBF
:101B2400147F021215259002837401F0900283E061
:101B3400FFD3942D5025C374879FFD7F02122FE09D
:101B4400900283E02487FD7F06122FE07D017F024F
:101B5400121525900283E004F080D17D017F0212EA
:101B640015259002837401F0900283E0FFD3942D35
:101B74005025C3742D9FFDE4FF122FE0900283E0F3
:101B8400242DFD7F04122FE07D017F021215259084
:101B94000283E004F080D17D017F021215259002BA
:101BA400837401F0900283E0FFD3942D5027EF2437
:101BB4005AFD7F02122FE0900283E0FFC374B49FAA
:101BC400FD7F06122FE07D017F021215259002830E
:101BD400E004F080CF7D017F02121525900283740A
:101BE40001F0900283E0FDD3942D5023E4FF122FE3
:101BF400E0900283E0FFC3745A9FFD7F04122FE03C
:101C04007D017F02121525900283E004F080D37DCC
:091C1400147F02121525021A3892
:10208F007F0112149C7F0412149C7F0312149C7FF7
:10209F000212149C7F0712149C7F0812149C7F0558
:1020AF0012149C7F0B12149C7F0D12149C7F0E1226
:1020BF00149C1231CCE490029EF090029EE0FFC37C
:1020CF00942D5024EF2487FD7F01122FE090029E64
:1020DF00E02487FD7F05122FE07D017F0212152579
:1020EF0090029EE004F080D2E490029EF090029E57
:1020FF00E0FFC3942D5024EF242DFD7F03122FE01A
:10210F0090029EE0242DFD7F07122FE07D017F02BC
:10211F0012152590029EE004F080D2E490029EF00A
:10212F007D5AE4FF122FE07D5A7F04122FE07D01CC
:10213F007F0212152590029EE0FFC374B49FFD7FAE
:10214F0001122FE090029EE0FFC374B49FFD7F0544
:10215F00122FE07D017F0212152590029EE0B42C14
:10216F000E7D2DE4FF122FE07D2D7F04122FE090C6
:10217F00029EE004F0E0C3942D40A5E490029EF08F
:10218F0090029EE0C3942D40030220C47DB47F02D1
:10219F00122FE07DB47F06122FE090029EE0FFC366
:1021AF00745A9FFD7F03122FE090029EE0FFC374CD
:1021BF005A9FFD7F07122FE07D017F021215259098
:1021CF00029EE0B42C0E7D877F02122FE07D877F69
:0C21DF0006122FE090029EE004F080A4A5
:102DE3007F0112149C7F0412149C7F0312149C7F96
:102DF3000612149C7F0212149C7F0812149C7F05F8
:102E030012149C7F0B12149C7F0D12149C7F0E12C4
:102E1300149C7B017A037964122AD2EF701D7BFF25
:102E23007A247983900364E0FCA3E0FDA3E0FEA38E
:102E3300E0FF9002BC1207821208BE7DC87F021217
:042E4300152580CE03
:0334BA000216F601
:0C34530012307A7D147F0212152580F4DF
:102A40009002F5EFF0BF01057F011214139002F51B
:102A5000E0B402057F021214139002F5E0B40305FE
:102A60007F031214139002F5E0B404057F041214DE
:102A7000139002F5E0B405057F051214139002F5DA
:102A8000E0B406057F061214139002F5E0B40705C2
:102A90007F071214139002F5E0B408057F081214A2
:102AA000139002F5E0B409057F0B1214139002F5A0
:102AB000E0B410057F0D1214139002F5E0B4110577
:102AC0007F0E1214139002F5E0B412057F0C12145D
:022AD0001322CF
:0C345F00122F917D147F0212152580F4BD
:0D3439007F0812149C1233A47F0B02149C18
:102685007F0112149C7F0412149C7F0312149C7FFB
:102695000612149C7F0212149C7F0712149C7F085B
:1026A50012149C7F0512149C7F0B12149C7F0D1233
:1026B500149C7F0E12149CD2A0D2A1D2A2D2A3D276
:1026C50094D295D2A6D2A7D2B57D327F0212152516
:1026D5001231CC7D327F021215259002F67401F07D
:1026E5009002F6E0FFD3942D4003022770C3742DAA
:1026F5009FFDE4FF122FE09002F6E02487FD7F02A4
:10270500122FE09002F6E0FCE41202EE7B667A6698
:1027150079E6783F12013EE4FBFA793478421200FB
:102725004D120322AD077F04122FE09002F6E0FC64
:10273500E41202EE7B667A6679E6783F12013EA8DE
:1027450004A905AA06AB07E4FFFE7D077C4312003A
:1027550049120322AD077F06122FE07D047F021286
:1027650015259002F6E004F00226E57F0C02149C84
:0C346B007F021214137F0812141380F467
:10334D0043BA8012327F1234AA1233DA1232B0121B
:0A335D002D761234A2D2AF0231CC5B
:1033B70012334DE4900363F07F0A121413E4FF0203
:0233C700149C54
:1010E80090031BEBF0A3EAF0A3E9F090031AEFF0EA
:1010F800640160030212C6900000F0A3F0A3F0A3FD
:10110800F0A3F090031EF0A3F090031EE0FEA3E00E
:10111800FFC39480EE9400501C740A2FF58274016A
:101128003EF583E4F090031FE004F070DC90031EAA
:10113800E004F080D4E490031EF0A3F090031EE0D6
:10114800FEA3E0FFC39480EE9400501C740A2FF5B0
:101158008274003EF583E4F090031FE004F070DC35
:1011680090031EE004F080D490031BE0FBA3E0FA98
:10117800A3E0F9120555FFE598543F4FF598EF6441
:10118800C06008EF64406003021271900002120709
:10119800527F807E8D7D5B7C001206749003201246
:1011A8000782E4FFFE7D01FC900320E0F8A3E0F94C
:1011B800A3E0FAA3E0FBC312071440037FFF2290C9
:1011C8000320E0F8A3E0F9A3E0FAA3E0FBC3E49B63
:1011D800FFE49AFE740199FDE498FC90032012073D
:1011E8008290031BE0FBA3E0FAA3E0F99000011250
:1011F800056EFB64017038C28E538EFE5389BF534F
:1012080089CF438E40900320E0FCA3E0FDA3E0FEDD
:10121800A3E0FF78081207258F8D900320A3A3A3CE
:10122800E0F58BC2AB5389BF538FFDD28E8073EB31
:1012380064027032538EEF438E01538EF7438E044F
:10124800900320E0FCA3E0FDA3E0FEA3E0FF780804
:101258001207258FD6900320A3A3A3E0F5D753AF99
:10126800FB438E10803C7FFF2290031BE0FBA3E032
:10127800FAA3E0F9120555FF701390000812056EE5
:10128800B40105438E20801A538EDF8015EFB48099
:101298001190000812056EB401054387808003533E
:1012A800877F90031BE0FBA3E0FAA3E0F990000717
:1012B80012056E7004C29C8002D29C7F00229003AB
:1012C8001AE064026003021410900005F0A3F0A372
:1012D800F0A3F0A3F090031EF0A3F090031EE0FE2D
:1012E800A3E0FFC39480EE9400501C748A2FF5820B
:1012F80074013EF583E4F090031FE004F070DC9085
:10130800031EE004F080D4E490031EF0A3F09003E1
:101318001EE0FEA3E0FFC39480EE9400501C748A84
:101328002FF58274003EF583E4F090031FE004F08B
:1013380070DC90031EE004F080D490031BE0FBA354
:10134800E0FAA3E0F9120555FF64C06008EF6440B5
:1013580060030213EEEFB4C005439A808003539AEA
:101368007F9000021207527F807E8D7D5B7C001289
:101378000674900320120782E4FFFE7D01FC9003AF
:1013880020E0F8A3E0F9A3E0FAA3E0FBC3120714F6
:1013980040037FFF22900320E0F8A3E0F9A3E0FADE
:1013A800A3E0FBC3E49BFFE49AFE740199FDE49873
:1013B800FC900320120782538EEF538EF7438E045E
:1013C800900320E0FCA3E0FDA3E0FEA3E0FF780883
:1013D8001207258FD6900320A3A3A3E0F5D753AF18
:1013E800FB438E1080037FFF2290031BE0FBA3E0EA
:1013F800FAA3E0F990000712056EC454F0FFE59ACD
:0A14080054EF4FF59A7F00227FFF9A
:0114120022B7
:0F341B008F999000027401F0900002E070FA2285
:10337E00120555FF600C12341B740129F9E43AFA58
:03338E0080EE22AC
:0F342A008F9B9000077401F0900007E070FA226A
:10339100120555FF600C12342A740129F9E43AFA36
:0333A10080EE2299
:0534B000AE0702341B11
:10318B00EFD3940140037FFF22EDD3940340037FE1
:10319B00FF22EF7004C2AC8002D2ACED700553B7C6
:1031AB00EFC2BCEDB4010553B7EFD2BCEDB40205D1
:1031BB0043B710C2BCEDB4030543B710D2BC7F00BC
:0131CB0022E1
:10310500EFD3940140037FFF22EDD3940340037F67
:10311500FF22E5AF54FE4FF5AFED700653B6FE53F3
:10312500B5FEEDB4010653B6FE43B501EDB4020696
:1031350043B60153B5FEEDB4030643B60143B501ED
:033145007F0022E6
:0300230002302E7A
:10302E00C0E0C083C082C0D075D000C007309827E2
:10303E00C298900003E0C394804002E4F090000335
:10304E00E0FF04F0740A2FF582E43400F583E5996D
:10305E00F09000047405F0309907C299900002E4D4
:0C306E00F0D007D0D0D082D083D0E03268
:03004300022E9DED
:102E9D00C0E0C083C082C0D075D000C007E59A30B5
:102EAD00E028539AFE900008E0C394804002E4F0BD
:102EBD00900008E0FF04F0748A2FF582E43400F5E9
:102ECD0083E59BF09000097405F0E59A30E1085315
:102EDD009AFD900007E4F0D007D0D0D082D083D0F7
:022EED00E032D1
:0F33EB007D607C09ED1D70011C144C70F7DFF143
:0133FA0022B0
:101C1D00EFD3940740037FFF22120555FED39403A3
:101C2D0040037FFF22EF7041EE700B900001120513
:101C3D006EF452935294120555B4010B900001129B
:101C4D00056E4293F45294120555FEB4020A9000AB
:101C5D000112056E42934294EEB4030D90000112F1
:101C6D00056EFEF45293EE4294EF6401704312053B
:101C7D0055FE700B90000112056EF452915292EECA
:101C8D00B4010B90000112056E4291F452921205AF
:101C9D0055B4020A90000112056E4291429212054E
:101CAD0055B4030D90000112056EFEF45291EE42F3
:101CBD0092EF64027043120555FE700B90000112F5
:101CCD00056EF452955296EEB4010B90000112057B
:101CDD006E4295F45296120555B4020A9000011207
:101CED00056E42954296120555B4030D90000112F2
:101CFD00056EFEF45295EE4296EF640370431205A5
:101D0D0055FE700B90000112056EF452B152B2EEF9
:101D1D00B4010B90000112056E42B1F452B21205DE
:101D2D0055B4020A90000112056E42B142B212057D
:101D3D0055B4030D90000112056EFEF452B1EE4242
:101D4D00B2EF64047043120555FE700B9000011242
:101D5D00056EF452B352B4EEB4010B9000011205AE
:101D6D006E42B3F452B4120555B4020A900001123A
:101D7D00056E42B342B4120555B4030D9000011225
:101D8D00056EFEF452B3EE42B4EF640570431205D6
:101D9D0055FE700B90000112056EF452C952CAEE39
:101DAD00B4010B90000112056E42C9F452CA12051E
:101DBD0055B4020A90000112056E42C942CA1205BD
:101DCD0055B4030D90000112056EFEF452C9EE429A
:101DDD00CAEF64067043120555FE700B9000011298
:101DED00056EF452CB52CCEEB4010B9000011205EE
:101DFD006E42CBF452CC120555B4020A900001127A
:101E0D00056E42CB42CC120555B4030D9000011264
:101E1D00056EFEF452CBEE42CCEF64077043120513
:101E2D0055FF700B90000112056EF452E152E2EF76
:101E3D00B4010B90000112056E42E1F452E212055D
:101E4D0055B4020A90000112056E42E142E21205FC
:101E5D0055B4030D90000112056EFFF452E1EF42EF
:041E6D00E27F0022EE
:07347700D2B312347ED2B281
:04347E007F0CDFFEE2
:013482002227
:0D344600123477C2B312347EC2B202347E5B
:0A348E00C2B3123479D2B302347EC7
:0A349800C2B3123479C2B202347ECE
:08000300123477C2B202347E10
:0533C900AF0412002614
:0C33CE00123477A2B392D5C2B202347E52
:02002600AE0723
:100028007D08EE30E704D2B38002C2B3EE25E0FECD
:0A003800123479C2B212347EDDE802
:01004200229B
:103317007D08D2B3D2B212347EEE25E0FE30B3017F
:0A3327000EC2B212347EDDECAF06D8
:013331002279
:10324800AE07AC05123446AF061200261233CE2064
:10325800D5221233C920D51C120555FF1200267439
:103268000129F9E43AFA1233CE20D50890032AE06E
:0732780014F070E402348E33
:102EEF0090031CEDF0AC071234461233C920D53FC6
:102EFF00E0FF1200261233CE20D534123446EC44B4
:102F0F0001FF1200261233CE20D524123317EF12F1
:102F1F00059B740129F9E43AFA900320E0640160FB
:102F2F0003123498900320E014F070DF12000302B4
:022F3F00348ECE
:100CD600AD07ED6401707A90FECCE054FEF0E0546E
:100CE600FBF090FEC8E054FCF0120555FF90FEC8DC
:100CF600E0548F4FF090000612056EFF90FECC3048
:100D0600E00DE04401F090FEB1E04401F0800BE01C
:100D160054FEF090FEB1E054FEF0EF90FECC30E1D0
:100D26000DE04404F090FEB1E04402F0800BE05484
:100D3600FBF090FEB1E054FDF0900003120600E5D2
:100D4600F090FED5F090000312060090FED6021039
:100D560090ED6402707A90FECCE054EFF0E054BF60
:100D6600F090FEC9E054FCF0120555FF90FEC9E074
:100D7600548F4FF090000612056EFF90FECC30E2C5
:100D86000DE04410F090FEB1E04404F0800BE05416
:100D9600EFF090FEB1E054FBF0EF90FECC30E30DA7
:100DA600E04440F090FEB1E04408F0800BE054BF10
:100DB600F090FEB1E054F7F0900003120600E5F063
:100DC60090FED7F090000312060090FED802109015
:100DD600ED6403707A90FECDE054FEF0E054FBF033
:100DE60090FECAE054FCF0120555FF90FECAE0548E
:100DF6008F4FF090000612056EFF90FECD30E40D89
:100E0600E04401F090FEB1E04410F0800BE054FEA7
:100E1600F090FEB1E054EFF0EF90FECD30E50DE03E
:100E26004404F090FEB1E04420F0800BE054FBF067
:100E360090FEB1E054DFF0900003120600E5F0905A
:100E4600FED9F090000312060090FEDA021090ED33
:100E56006404707A90FECDE054EFF0E054BFF09059
:100E6600FECBE054FCF0120555FF90FECBE0548F0C
:100E76004FF090000612056EFF90FECD30E60DE0B5
:100E86004410F090FEB1E04440F0800BE054EFF0E7
:100E960090FEB1E054BFF0EF90FECD30E70DE04498
:100EA60040F090FEB1E04480F0800BE054BFF0903B
:100EB600FEB1E0547FF0900003120600E5F090FECC
:100EC600DBF090000312060090FEDC021090ED6449
:100ED60080704F90000512056E90FEDEF0900001C6
:100EE600120600E5F090FED2F09000011206009086
:100EF600FED3F090000812056E90FEDDB40106E008
:100F06004480F08004E0547FF090000712056E9054
:100F1600FEC0B40106E04401F08004E054FEF07F18
:100F26000022ED6405705690FEECE054FEF090FE53
:100F3600E8E054FCF0120555FF90FEE8E0548F4FB0
:100F4600F090000612056E90FEEC30E00DE04401D4
:100F5600F090FEB5E04401F0800BE054FEF090FE08
:100F6600B5E054FEF0900003120600E5F090FEF5A1
:100F7600F090000312060090FEF6021090ED640653
:100F8600705690FEECE054EFF090FEE9E054FCF071
:100F9600120555FF90FEE9E0548F4FF090000612BF
:100FA600056E90FEEC30E20DE04410F090FEB5E0E8
:100FB6004404F0800BE054EFF090FEB5E054FBF0F3
:100FC600900003120600E5F090FEF7F09000031281
:100FD600060090FEF8021090ED6407705590FEED45
:100FE600E054FEF090FEEAE054FCF0120555FF9046
:100FF600FEEAE0548F4FF090000612056E90FEED6B
:1010060030E40DE04401F090FEB5E04410F0800BB2
:10101600E054FEF090FEB5E054EFF09000031206A7
:1010260000E5F090FEF9F090000312060090FEFA3B
:101036008058ED6408705790FEEDE054EFF090FE96
:10104600EBE054FCF0120555FF90FEEBE0548F4F99
:10105600F090000612056E90FEED30E60DE04410AD
:10106600F090FEB5E04440F0800BE054EFF090FEC7
:10107600B5E054BFF0900003120600E5F090FEFBC9
:10108600F090000312060090FEFCF07F0022ED6453
:1010960081704C90000512056E90FEFEF0900001E6
:1010A600120600FDACF0EC90FEF2F0AF05A3EFF0F7
:1010B60090000812056E90FEFDB40106E04480F033
:1010C6008004E0547FF090000712056E90FEE0B4B5
:1010D6000106E04401F08004E054FEF07F00227F28
:0210E600FF22E7
:102CF700EFD3948140037FFF22EBD3940340037FFC
:102D0700FF22EF247F603204705D90FEC4EDF0EB8C
:102D1700700653B6FB53B5FBEBB4010653B6FB4342
:102D2700B504EBB4020643B60453B5FBEB6403707A
:102D37003B43B60443B504803390FEE4EDF0EB70FB
:102D47000653B6F753B5F7EBB4010653B6F743B5D9
:102D570008EBB4020643B60853B5F7EBB4030D43CB
:0F2D6700B60843B508800590FEE4EDF07F00222A
:1021EB00EF248070030222A61470030222EB2480DA
:1021FB00B40800400302233790221175F003A4C5E5
:10220B008325F0C58373022229022236022246025D
:10221B00225602226602227602228602229612059C
:10222B00D5FDACF0EC90FED50223319000021206E6
:10223B0000FDACF0EC90FED70223319000041206A7
:10224B0000FDACF0EC90FED9022331900006120693
:10225B0000FDACF0EC90FEDB02233190000812067F
:10226B0000FDACF0EC90FEF502233190000A120653
:10227B0000FDACF0EC90FEF702233190000C12063F
:10228B0000FDACF0EC90FEF902233190000E12062B
:10229B0000FDACF0EC90FEFB0223311205D5FDAC3A
:1022AB00F0EC90FED5F0AF05A3EFF0900002120614
:1022BB0000FDACF0EC90FED7F0AF05A3EFF0900073
:1022CB0004120600FDACF0EC90FED9F0AF05A3EFC5
:1022DB00F0900006120600FDACF0EC90FEDB8046A1
:1022EB00900008120600FDACF0EC90FEF5F0AF0587
:1022FB00A3EFF090000A120600FDACF0EC90FEF795
:10230B00F0AF05A3EFF090000C120600FDACF0EC63
:10231B0090FEF9F0AF05A3EFF090000E120600FD52
:0D232B00ACF0EC90FEFBF0AF05A3EFF0224C
:0B348300120322AD07AC06EC0202E9C8
:10336700900312740CF09003117402F07B017A033E
:0733770079117F03021C1D08
:1033DA001233671233FB7F007E007D707C42022726
:0133EA00756D
:1033FB007F0A1233EBE4FDFF1233327F0A0233EB09
:062775009003111207821F
:10277B0090031712078E4BBEBC20900317E0FCA3EF
:10278B00E0FDA3E0FEA3E0FFE4FBFA7980784512BD
:10279B000247900317120782900317E0FCA3E0FD9A
:1027AB00A3E0FEA3E0FF900311E0F8A3E0F9A3E0A0
:1027BB00FAA3E0FB1202479003171207829003174C
:1027CB00E0FCA3E0FDA3E0FEA3E0FFE4FBFA7980CD
:1027DB00783F120049900317120782E4FFFEFD7C3D
:1027EB003F900317E0F8A3E0F9A3E0FAA3E0FB1294
:1027FB00004D123483120322900316EFF07B017A03
:10280B00037915E4FF12340B900315E0547F441049
:10281B00FDE4FF123332900316E0FD7FFE123332DC
:10282B00900315E0FDE4FF1233327F051233EB907A
:0B283B000315E044A1FDE4FF0233326E
:102E4700900322EAF0A3EBF090031FEFF0A3ECF05E
:102E5700A3EDF0EF25E025E02406FF1233329003BF
:102E67001FE025E025E02407FFA3E0FD12333290A1
:102E7700031FE025E025E02408FF900322A3E0FDDF
:102E870012333290031FE025E025E02409FF900369
:062E970022E0FD023332CF
:10299C00900368EFF0A3ECF0A3EDF0C394FFEC947C
:1029AC000F900369500EE0FFA3E0900369CFF0A3F2
:1029BC00EFF08007740FF0A374FFF0EB6039900315
:1029CC0069E07002A3E070028039900369E0B40FF3
:1029DC0010A3E0B4FF0B900368E0FF7B007A10803B
:1029EC004C900368E0FFA3E0FCA3E0FDC374FF9DE3
:1029FC00FB740F9CFA8036900369E0B40F12A3E0CD
:102A0C00B4FF0D900368E0FFE4FBFAFD7C1080201E
:102A1C00900369E07002A3E09003687008E0FF7B0C
:102A2C00007A108008E0FFA3E0FAA3E0FBE4FDFCD1
:042A3C00122E4722ED
:05284600900316EFF005
:10284B0090031B12078E447A000090031BE0FCA33D
:10285B00E0FDA3E0FEA3E0FFE4FBFA7970784212FF
:10286B00024790031B12078290031BE0FCA3E0FDC1
:10287B00A3E0FEA3E0FFE4FBFA7980784512024760
:10288B0090031B120782900317E0FCA3E0FDA3E06B
:10289B00FEA3E0FFE4FBFA797A784412013E900341
:1028AB0017120782900317E0FCA3E0FDA3E0FEA341
:1028BB00E0FFA3E0F8A3E0F9A3E0FAA3E0FB120228
:1028CB0047900317120782900317E0FCA3E0FDA3C8
:1028DB00E0FEA3E0FF120322AB07AA06900316E06B
:0728EB00FFE4FDFC022E4793
:052FE000900311EFF069
:102FE500EDC394B440047DB48008EDD39400500241
:102FF500E4FDED242DFDE433FC1202E97B007AC8E3
:1030050079AF784712024790031212078290031294
:10301500E0FCA3E0FDA3E0FEA3E0FF900317120789
:0930250082900311E0FF0228462D
:10333200900324EDF0AD077B017A03792490032AF0
:0B3342007401F07F801232487F0022EF
:10340B00AD079003207401F07F80122EEF7F002216
:103148009003127401F09003117403F07B017A0369
:103158007911E4FF121C1D9003127420F0E490030F
:1031680011F07B017A0379117F03121C1D90031261
:103178007420F0E4900311F07B017A0379117F0445
:03318800021C1D09
:0634AA0043BA8002314824
:102BED00AB07AA06E4F9F8FF7E367D6E7C01123044
:102BFD00C190022EEEF0A3EFF09002257460F0ADBF
:102C0D0007AC06E41202E9E4FBFAF9783F12013E43
:102C1D00120322900228EEF0A3EFF090022B740124
:102C2D00F0FB7A0279257F05120CD690022FE02455
:102C3D00FFFE90022EE034FF900226F0A3CEF0E4CA
:102C4D0090022AF090022D04F090022CF0FB7A02F3
:102C5D0079257F81120CD690FEB6E054FC4402F02B
:082C6D00E4FBFD7F81022CF75E
:10000E00E490022DF090022CF07B017A0279257F8C
:04001E0081020CD679
:1032B0009003127408F09003117403F07B017A03F9
:1032C00079117F01121C1D9003127401F0900311FB
:0B32D000F0FB7A0379117F04021C1D43
:0434B5007F4EDFFE69
:0134B90022F0
:0B2AD2009002B9EBF0A3EAF0A3E9F0DA
:102ADD00E4FBFAC293D2931234B51234B5C29320EB
:102AED00C015C3EB941EEA64809480500A0BBB00A2
:102AFD00010A1234B580E8C3EB941EEA6480948019
:102B0D0040057EFF7FFF22E4FAFB30C00A0BBB00BD
:102B1D00010A1234B580F37C007D0AAF03AE0212B8
:102B2D0005ADAA06AB07AD07AC06EC1202E97B9624
:102B3D007A43790B783D12013EE4FBFAF9784012A5
:102B4D0002479002B9E0FBA3E0FAA3E0F9120738BF
:032B5D00E4FEFF94
:012B60002252
:102D76009003117440F0A37401F0A312078E0001B2
:102D8600C2009003187401F0E4A3F07B017A037982
:102D9600117F011210E87D017F0112318B53A23F92
:102DA6005393F35394F35391FC5392FC9003117491
:102DB60040F0A37402F0A312078E00002580900352
:102DC600187401F0E4A3F07B017A0379117F0212F3
:0C2DD60010E87D017F0112310553BAFEA8
:012DE20022CE
:10307A00900004E0D39400403DE014F070389000D2
:10308A0003E0D39400402AE49002F3F0900003E0B6
:10309A00FF9002F3E0FEC39F5017740A2EF582E4F4
:1030AA003400F583E0FF12342A9002F3E004F08042
:0630BA00DBE4900003F0CE
:0130C00022ED
:102F9100900009E0D394004045E014F070409000A7
:102FA10008E0D394004032E49002F4F0900008E08D
:102FB100FF9002F4E0FEC39F501F748A2EF582E455
:102FC1003400F583E0FF12341B90008AE0FF122ADF
:0E2FD100409002F4E004F080D3E4900008F099
:012FDF0022CF
:102F4100E4900311F0A37430F07B017A0379117FCF
:102F510001121C1DE4900311F0A374CFF07B017AE0
:102F61000379117F02121C1DE4900311F0A3742058
:102F7100F07B017A0379117F03121C1DE490031188
:102F8100F0A37420F07B017A0379117F04021C1DE8
:0834A200122F41C2C5C2B52280
:1033A400D2C5D2A0D2A1D2A2D2A3D294D295D2A66F
:0333B400D2A7227B
:1016F600E49002EBF0A3F0E49002E9F0A3F090028C
:10170600E9E0FEA3E0FFC39408EE64809480400302
:101716000217A2EF4E7003C38001D392A7EF6401B4
:101726004E7003C38001D392A69002E9E0FEA3E0C7
:10173600FF64024E7003C38001D39295EF64034E9B
:101746007003C38001D392949002E9E0FEA3E0FF08
:1017560064044E7003C38001D392A3EF64054E70F8
:1017660003C38001D392A29002E9E0FEA3E0FF64E6
:10177600064E7003C38001D392A1EF64074E700337
:10178600C38001D392A07FC81233EB9002EAE00433
:10179600F070069002E9E004F00217049002E9E412
:1017A600F0A37407F09002E9E0FEA3E0FFC3EE6445
:1017B6008094805003021846EF4E70028001D39247
:1017C600A7EF64014E7003C38001D392A69002E98D
:1017D600E0FEA3E0FF64024E7003C38001D392953E
:1017E600EF64034E7003C38001D392949002E9E044
:1017F600FEA3E0FF64044E7003C38001D392A3EFFF
:1018060064054E7003C38001D392A29002E9E0FE04
:10181600A3E0FF64064E7003C38001D392A1EF6478
:10182600074E7003C38001D392A07FC81233EB909A
:1018360002EAE024FFF09002E9E034FFF00217AB81
:101846009002ECE004F070069002EBE004F0C39026
:1018560002ECE094039002EBE06480948050030273
:1018660016FDE49002EDF0A3F0C39002EEE09403BF
:101876009002EDE06480948040030216F6C2A1C295
:10188600A77F641233EBD2A1D2A77F641233EBC2D7
:10189600A0C2A67F641233EBD2A0D2A67F64123315
:1018A600EBC2A2C2947F641233EBD2A2D2947F64BD
:1018B6001233EBC2A3C2957F641233EBD2A3D29547
:1018C6007F641233EBC2A3C2957F641233EBD2A3BB
:1018D600D2957F641233EBC2A2C2947F641233EBBB
:1018E600D2A2D2947F641233EBC2A0C2A67F641246
:1018F60033EBD2A0D2A67F641233EBC2A1C2A77F7C
:10190600641233EBD2A1D2A77F641233EBE49002C8
:10191600EFF0A3F0C2A0C2A1C2A2C2A3C294C29514
:10192600C2A6C2A77F961233EBD2A0D2A1D2A2D270
:10193600A3D294D295D2A6D2A77F961233EB900269
:10194600F0E004F070069002EFE004F0C39002F0BD
:10195600E094039002EFE06480948040B7E4900244
:10196600F1F0A3F0C2A0C2A1C2A2C2A3C294C295C2
:10197600C2A6C2A77F2C1233EBD2A0D2A1D2A2D28A
:10198600A3D294D295D2A6D2A77F2C1233EB900283
:10199600F2E004F070069002F1E004F0C39002F267
:1019A600E094039002F1E06480948040B79002EEE8
:0E19B600E004F070069002EDE004F002186FFD
:10141300EFD3940E40037FFF2274232F2FF8E6208F
:10142300E5F4C2AFE64430F6D2AFAE0CEEC39F5044
:10143300210E74402EF8E6F908E618BE0E0274FF7A
:10144300FDED69600909E71919F7090980F3161613
:1014530080DAEED39F400405810581EED39F4022BD
:1014630074402EF808E6F9EEB50C02A981180606B9
:10147300E6FDED6960091919E70909F71980F31EFB
:1014830080D9EF2440F8E604F8EF2F049032F99363
:09149300F608EF2F93F67F00220A
:10149C00EFD3940E40037FFF22EF232423F8E63092
:1014AC00E5F4C2AFE6548CF6D2AFE50CB5070A747E
:1014BC00402FF8E6F5810215FF502E74412FF8E607
:1014CC00BF0E0274FFFD18E6F974402FF8FBE6FC22
:1014DC00E96C6008A805E7F61D1980F4A803A605B9
:1014EC001FE50CB507E37F002274412FF8E6FD18C9
:1014FC0086010F74402FF8A601088604E50CB50789
:10150C0002AC81ED6C60080D09A805E6F780F4E5E6
:09151C000CB507DE89817F002275
:101525008FF0E4FFFEE50C232422F8C2A930F70D65
:101535007F08E6600B2DF660325030800730F106EB
:10154500EDF660277E020830F010C2AFE610E72501
:101555000E30E20CD2AF7F048014C2AFE610E7155F
:1015650054EC4EF6D2AFD2A90215FF7F0808EF441E
:0F15750083F4C2AF56C6D2AFD2A954804FFF2223
:03000B0002158952
:10158400C2AF80FE3212158885D00B75D008AAE050
:10159400C28CE58A24F7F58AE58C34D8F58CD28C94
:1015A400EC2441F8E6BC0E0274FFC39581B4140028
:1015B40040CE790F782216E608700BC2AFE630E110
:1015C400034418F6D2AF08D9EDEA8BD030090122D2
:1015D400D50DFCC0E0C0D0C0F0C083C082C000C044
:1015E40001C002C003C004C005C006C007E50C2347
:1015F4002423F87440C2AF46F6D2AFD209E50CFFFB
:10160400232423F80F0808BF0F047F007823E63053
:10161400E4F200E50CC39F5020050C7440250CF83F
:10162400E6FDA68108E6AE0CBE0E0274FFCDF8E816
:101634006D60E008E6C0E080F6E50CD39F4027E546
:101644000C2441F8E6AE0CBE0E0274FFFD18E6CD84
:10165400F8E5816D6006D0E0F61880F5E50C2440CD
:10166400C8F6150C80D3750D05E50C232423F87FEB
:1016740004C2AFE610E61E30E00310E20C7F003037
:05168400E10730E30462
:101689007F0854F4547CC6D2AF54804207C2092261
:10169900F6D2AFD007D006D005D004D003D002D0FF
:1016A90001D000D082D083D0F0D0D0D0E0C20922BE
:1016B9007840A681740E6006FF0876FFDFFB7F0F76
:1016C900E47822F608F608DFFA782376309032F9C2
:1016D900740193C0E0E493C0E0750D054389017579
:0D16E9008AF0758CD8D28CD2AFD2A9220E17
:1000460002038EE86480F8E933E83360110460F057
:10005600ED33EC337009E8FCE9FDEAFEEBFF220420
:1000660060DED3EB9FEA9EE99DE8C2E78CF0C2F71B
:1000760095F0400CE8CCF8E9CDF9EACEFAEBCFFBE7
:1000860012035985D0F05804700320D5B3E80470E4
:10009600075002B2D502039892D5EC0460F7E4CC7F
:1000A600C0E0C398F8603B94186008400DD0E0FBB0
:1000B600020370E4FBFAC9FC8028E830E406E4C9D0
:1000C600FBE4CAFCE830E305E4C9CACBFCE8540704
:1000D6006010F8C3E913F9EA13FAEB13FBEC13FC0F
:1000E600D8F130F52FC3E49CFCEF9BFFEE9AFEEDB2
:1000F60099FDD0E0FBEF4E4D4C701222DB0302035C
:1001060095EC2CFCEF33FFEE33FEED33FDED30E7DF
:10011600EB020370EF2BFFEE3AFEED39FDD0E0FB6C
:1001260050130BBB0003020398ED13FDEE13FEEF15
:0801360013FFEC13FC0203703F
:10013E00EC4D6011E8497017ED33EC3304600DE4BB
:10014E00FCFFFEFD22E933E8330470F802038E1241
:10015E00035958046009E4CC248150062850090242
:10016E000398284003020395C0E0EB4A7044B9801F
:10017E0006D0E0FB020384EF4E701CBD8008EBFF3F
:10018E00EAFEE9FD80EBE98DF0A4FEE5F002022720
:10019E00E9CDF9EAFEEBFFEF89F0A4FCE5F0CE899C
:1001AE00F0A42EFFE435F0CD89F0A42DFEE435F059
:1001BE008067EF4E7005BD80D780C3EF8BF0A4AC87
:1001CE00F0EE8BF0A42CFCE435F0F8EF8AF0A42CC2
:1001DE00E5F038FCE433CB8DF0A42CFCE5F03BF8D5
:1001EE00EE8AF0A42CFCE5F038F8E433CF89F0A4C5
:1001FE002CFCE5F038CF3400CE89F0A42FFFE5F0CB
:10020E003EFEE433C98DF0A42EFEE5F039CD8AF022
:10021E00A42FFFE5F03EFEE43DFD33D0E0FB50079A
:10022E000BBB000F020398EC2CFCEF33FFEE33FEFA
:06023E00ED33FD02037028
:10024400020398EC5D046005E85904700302038E10
:10025400120359580460F6EC4860F2EC7004FDFE99
:10026400FF22C860DB2481C85009C398600250068D
:100274000203959850CAF582E9294B4A7005AB826E
:1002840002038475F0007C1A7880C3EF9BEE9AED2C
:1002940099400DC3EF9BFFEE9AFEED99FDE842F005
:1002A400DC23ACF0D0E0FFD0E0FED0E0FDAB822058
:1002B400E7101BEB60BAEC2CFCEF33FFEE33FEEDE2
:1002C40033FD020370E803F830E705C0F075F00071
:1002D400EF2FFFEE33FEED33FD40B830E7C280AAC6
:1002E40075F020800E75F010800575F0087D007E95
:1002F400007F003392D530D503120706EC3340104B
:10030400EF33FFEE33FEED33FDEC33FCD5F0ED229D
:0E031400E5F0247EA2D513CC92E7CDCEFF22D9
:10032200EDD2E7CD33EC3392D524814006E4FFFED3
:10033200FDFC22FCE4CFCECDCC24E0501174FF8032
:10034200EDC3CC13CCCD13CDCE13CECF13CF0470CF
:07035200F030D5DE020706C2
:10085300E50E24BCF582E43402F583E0050E229014
:1008630002B93007039002BCE475F0011207BF021E
:1008730005552000E97F2ED2008018EF540F2490F5
:10088300D43440D4FF30040BEF24BFB41A00500318
:100893002461FFE50F6002150F0512E512700205D2
:1008A3001130070E9002B9E475F0011207BFEF0291
:1008B300059B0234B07403D2078003E4C207F50E2C
:1008C3009002B91207D6E4F50FF511F512E50F60A2
:1008D300077F2012089680F57510FFC201C200C27F
:1008E30002C203C205C206C208120862FF700D30BD
:1008F30007057F001208A7AF12AE1122B4255FC20D
:10090300D5C204120862FF24D0B40A00501A75F04D
:100913000A780F30D50508B6FF0106C6A426F620CF
:10092300D5047002D20380D924CFB41A00EF500447
:10093300C2E5D204020B99D20180C6D20080C0D294
:100943000280BCD2D580BAD20580B47F201208962B
:100953002002077401B50F0040F1120853FF12087B
:10096300960208D0D208D2068095120853FB1208CB
:1009730053FA120853F94A4B700679977A0C7BFFA6
:1009830020022EE50F602A7E008E827583001205F9
:100993006E60060EEE651070F0C2D5EBC0E0EAC0E3
:1009A300E0E9C0E0EE120BFAD0E0F9D0E0FAD0E0D3
:1009B300FB120555FF60AAEBC0E0EAC0E0E9C0E026
:1009C300120896D0E02401F9D0E03400FAD0E0FB1D
:1009D300E5100460DCD510D98087D20280A2120B07
:1009E300DC60F7E5107001041203A3A910600DE5A4
:1009F30010600914F510120C84EF60F3EA30E7027B
:100A0300F404C3995079EAF425100430E701E404AF
:100A1300F510800D120BDC60C1EA051025101203DE
:100A2300A3EA9002E8F030E701E4251004D51004AE
:100A330020050114120BFAE4C0E0120C849002E8C2
:100A4300E0601320E70714F012087E802204F0D040
:100A5300E014C0E07F0012087EE5106007120875FD
:100A63001510800B300503120875D0E00208D0D0B2
:100A7300E00480C4120BDC609EE510041203A39013
:100A830002E8EAF0E5102005026001042404120BD9
:010A9300FA68
:100A940074FF04C0E0120C8412087EE510200502E5
:100AA4006003120875D0E0B510E87F4512088890FD
:100AB40002E8E07F2B30E7047F2DF404C0E0120845
:100AC40096D0E075F00A84C0F012087FD0E01208D6
:100AD4007F0208D0791080027908C206C208800813
:100AE400D2D5790A8004790AC2D5E510047002F5DA
:100AF40010E4FAFDFEFF120853FC7B0820011312D8
:100B04000853FD7B1030000A120853FE120853FFED
:100B14007B20EC3382D592D55013C3E43000069F7A
:100B2400FFE49EFEE42001039DFDE49CFCE4CBF87D
:100B3400C201EC700CCFCECDCCE824F8F870F38071
:100B440017C3EF33FFEE33FEED33FDEC33FCEB3331
:100B5400FB994002FB0FD8E9EB300105F8D0E0C463
:100B640048B201C0E00AEC4D4E4F78207B0070C2C1
:100B7400EAB5100040BCC0E0120BFCD0F0D0E0207D
:100B84000104C4C0E0C4B201C0F012087FD0F0D5A3
:100B9400F0EB0208D01207DF096D530AD858093E5A
:100BA4004C093A420ADC4F0AE4440AE44909534333
:100BB4000AEA550A17460A774509E1470CB750096E
:100BC400422D09462E09692B094A230967200CA0E6
:100BD4002A09024800000961E510B4FF03751006F4
:100BE400120853FC120853FD120853FE120853FF57
:100BF4009002E10203E0790AA2D52003143005092A
:100C0400B910020404B9080104A2D5200602500157
:100C1400042002689202B50F005034C0E07F2030F7
:100C240003197F30A20272067205500F120C53C2D0
:100C340002C206C205C2087F30800F300503E9C036
:100C4400E0120896300503D0E0F9D0E0B50FCC30BF
:100C540005177F30B9100C1208967F583004077FAF
:100C6400788003B908031208963002057F2D020824
:100C7400967F202008F87F2B2006F322920280CF53
:100C84007F00B40700500B24E1F582E43402F583BD
:100C9400E0FF22286E756C6C2900D20112085330D3
:100CA40001F8C201780F30D50108F60209022D506F
:100CB4004349581208532403B405004001E4900C3E
:100CC400B293120887743A120887D203750F04028C
:020CD4000AD83C
:10035900E9D2E7C933E833F892D5EDD2E7CD33ECEA
:0703690033FC5002B2D52263
:10037000EC30E7100FBF000C0EBE00080DBD0004EE
:100380000BEB6014A2D5EB13FCED92E7FD2274FF9A
:10039000FCFDFEFF22E480F8A2D574FF13FC7D80F3
:0303A000E480EF07
:1003A300F920E73624F950037907E4F42402FBE546
:1003B30082158270021583DBF6E024FB501BE96093
:1003C30014E4F0E582158270021583E004F0B40AA8
:0D03D30008E4F0D9EE7401F00A22C2D52230
:1003E000ED33EC3392D5FA602AB4FF33EDC2E77BEC
:1003F000FF60067A047905E4227A04790E20D50498
:100400007A047909224E614E002B494E46002D494F
:100410004E4600E47A08F0A3DAFC7B00740722C0A1
:1004200083C082ECC0E0EDC0E0EEC0E0EFC0E0EAE7
:1004300075F010A4CAABF075F04DA42BFBE435F0B9
:10044000FCEA2410FAEB34C5FBEC34D9FCEDC2E72E
:10045000FF75F056A4F42411C5F0F434C58FF0A450
:100460002AE5F03BE43CF020E714120515D0E0FF4C
:10047000D0E0FED0E0FDD0E0FC1202478014F4048E
:10048000120515D0E0FFD0E0FED0E0FDD0E0FC1278
:10049000013ED082D083E0FAEDD2E7CD33EC3324B5
:1004A00082FBE4C3CF33CFCE33CECD33CD33DBF3BA
:1004B0007B0775F00A846004F0A31B0AE5F0F0A343
:1004C0008FF0740AA4FFACF08EF0740AA42CFEAC7A
:1004D000F050010C8DF0740AA42CFDE435F0F0A36B
:0504E000DBDE740722C1
:1004E5003F8000004120000042C80000447A00001F
:1004F500461C400047C35000497424004B189680A1
:100505004CBEBC205A0E1BCA6753C21C749DC5AE97
:10051500FB60065407601C2323120543EB54386027
:100525000912052F12053E12013EECF8EDF9EEFA1F
:10053500EFCB22EB12053E80F1543803241C9004C6
:10054500E5FE93FC0EEE93FD0EEE930ECE93FF2289
:03000000022B616F
:0C2B6100787FE4F6D8FD75814E022BA8A9
:10055500BB010689828A83E0225002E722BBFE02A4
:09056500E32289828A83E49322D7
:10056E00BB010CE58229F582E5833AF583E0225042
:10057E0006E92582F8E622BBFE06E92582F8E2228C
:0D058E00E58229F582E5833AF583E49322A6
:10059B00BB010689828A83F0225002F722BBFE013F
:0205AB00F32239
:1005AD00EF8DF0A4A8F0CF8CF0A428CE8DF0A42E62
:0205BD00FE221C
:1005BF00A3F8E0C5F025F0F0E582158270021583EF
:0605CF00E0C838F0E8224C
:1005D500BB010A89828A83E0F5F0A3E022500687F1
:1005E500F009E71922BBFE07E3F5F009E3192289B3
:0B05F500828A83E493F5F074019322E6
:10060000BB0110E58229F582E5833AF583E0F5F038
:10061000A3E0225009E92582F886F008E622BBFE15
:100620000AE92582F8E2F5F008E222E5832AF5835B
:08063000E993F5F0A3E9932220
:1006380075F008758200EF2FFFEE33FECD33CDCC79
:1006480033CCC58233C5829BED9AEC99E5829840FC
:100658000CF582EE9BFEED9AFDEC99FC0FD5F0D6D9
:10066800E4CEFBE4CDFAE4CCF9A88222B800C1B903
:100678000059BA002DEC8BF084CFCECDFCE5F0CB41
:10068800F97818EF2FFFEE33FEED33FDEC33FCEB7A
:1006980033FB10D703994004EB99FB0FD8E5E4F935
:1006A800FA227818EF2FFFEE33FEED33FDEC33FC22
:1006B800C933C910D7059BE99A4007EC9BFCE99A16
:1006C800F90FD8E0E4C9FAE4CCFB2275F010EF2F5B
:1006D800FFEE33FEED33FDCC33CCC833C810D7075B
:1006E8009BEC9AE899400AED9BFDEC9AFCE899F896
:0E06F8000FD5F0DAE4CDFBE4CCFAE4C8F92229
:1030C100C2D5E830E70FB2D5E4C39BFBE49AFAE43A
:1030D10099F9E498F8EC30E717B2D51230F71206F7
:1030E10074E4C39BFBE49AFAE499F9E498F8800349
:1030F10012067430D50DE4C39FFFE49EFEE49DFDEE
:04310100E49CFC222C
:0E070600C3E49FFFE49EFEE49DFDE49CFC2204
:10071400EB9FF5F0EA9E42F0E99D42F0E89C45F03B
:0107240022B2
:10072500E8600FECC313FCED13FDEE13FEEF13FFB2
:03073500D8F122D6
:10073800BB010789828A830207825005E9F802080B
:0A0748003BBBFE05E9F8020847225A
:10075200BB010DE58229F582E5833AF58302081291
:100762005007E92582F8020805BBFE07E92582F851
:1007720002081EE58229F582E5833AF58302082BF9
:0C078200ECF0A3EDF0A3EEF0A3EFF022EA
:10078E00A8828583F0D083D0821207A51207A51206
:10079E0007A51207A5E473E493A3C583C5F0C5832B
:1007AE00C8C582C8F0A3C583C5F0C583C8C582C8B5
:0107BE002218
:1007BF00F8E0FBA3A3E0F925F0F0E58215827002C3
:0707CF001583E0FA38F02267
:0907D600EBF0A3EAF0A3E9F02224
:1007DF00D083D082F8E4937012740193700DA3A3A9
:1007EF0093F8740193F5828883E4737402936860BD
:0607FF00EFA3A3A380DFBD
:102B6D000216B9E493A3F8E493A34003F68001F2AF
:102B7D0008DFF48029E493A3F85407240CC8C33369
:102B8D00C4540F4420C8834004F456800146F6DF38
:102B9D00E4800B010204081020408090320BE47E8B
:102BAD00019360BCA3FF543F30E509541FFEE4932D
:102BBD00A360010ECF54C025E060A840B8E493A3F4
:102BCD00FAE493A3F8E493A3C8C582C8CAC583CA1F
:102BDD00F0A3C8C582C8CAC583CADFE9DEE780BED7
:013247000086
:0D080500E6FB08E6F908E6FA08E6CBF82263
:0C081200E0F8A3E0F9A3E0FAA3E0FB2269
:0D081E00E2FB08E2F908E2FA08E2CBF8225A
:10082B00E493F8740193F9740293FA740393FB2223
:0C083B00ECF608EDF608EEF608EFF622E9
:0C084700ECF208EDF208EEF208EFF222ED
:00000001FF
