C51 COMPILER V9.60.7.0   LED                                                               12/30/2023 11:55:39 PAGE 1   


C51 COMPILER V9.60.7.0, COMPILATION OF MODULE LED
OBJECT MODULE PLACED IN .\Objects\led.obj
COMPILER INVOKED BY: E:\qianrushi\keil\C51\BIN\C51.EXE Driver\led.c LARGE OPTIMIZE(8,SPEED) BROWSE INCDIR(.\Lib;.\Driver
                    -;.\User) DEBUG OBJECTEXTEND PRINT(.\Listings\led.lst) TABS(2) OBJECT(.\Objects\led.obj)

line level    source

   1          #include  "led.h"
   2          #include  "GPIO.h"
   3          #include  "Delay.h"
   4          
   5          #define   LED_SW  P45
   6          #define   LED_F   P35
   7          #define   LED1    P27
   8          #define   LED2    P26
   9          #define   LED3    P15
  10          #define   LED4    P14
  11          #define   LED5    P23
  12          #define   LED6    P22
  13          #define   LED7    P21
  14          #define   LED8    P20
  15          
  16          
  17          void GPIO_Config(){
  18   1        
  19   1        // 初始化8个LED的IO口模式
  20   1        GPIO_InitTypeDef init;
  21   1        init.Mode = GPIO_PullUp;
  22   1        init.Pin = GPIO_Pin_4 | GPIO_Pin_5 ;
  23   1        GPIO_Inilize(GPIO_P1 , &init);
  24   1        
  25   1        init.Mode = GPIO_PullUp;
  26   1        init.Pin = GPIO_Pin_0 | GPIO_Pin_1| GPIO_Pin_2| GPIO_Pin_3| GPIO_Pin_6| GPIO_Pin_7 ;
  27   1        GPIO_Inilize(GPIO_P2 , &init);
  28   1        
  29   1        init.Mode = GPIO_PullUp;
  30   1        init.Pin = GPIO_Pin_5  ;
  31   1        GPIO_Inilize(GPIO_P3 , &init);
  32   1        
  33   1        init.Mode = GPIO_PullUp;
  34   1        init.Pin = GPIO_Pin_5 ;
  35   1        GPIO_Inilize(GPIO_P4 , &init);
  36   1      }
  37          
  38          void LED_init(){
  39   1        GPIO_Config();
  40   1        LED_SW = 0;
  41   1        LED_F = 0;
  42   1      }
  43          void LED_stop(){
  44   1        LED_SW = 1;
  45   1        LED1 =LED2 =LED3 =LED4 =LED5 =LED6 =LED7=LED8 =1;
  46   1      }
  47          void LED_play(){
  48   1        int i ;
  49   1        int j;
  50   1        int m;
  51   1         int n;
  52   1        int b;
  53   1      //  int percent = 0;
  54   1      //  int direction = 1;
C51 COMPILER V9.60.7.0   LED                                                               12/30/2023 11:55:39 PAGE 2   

  55   1      //  u16 duty_percent;
  56   1        
  57   1      while(1){
  58   2          for(j=0;j<3;j++){
  59   3            
  60   3           for(i = 0 ; i < 8 ; i++){
  61   4            LED1 = i == 0 ? 0 : 1;
  62   4            LED2 = i == 1 ? 0 : 1;
  63   4            LED3 = i == 2 ? 0 : 1;
  64   4            LED4 = i == 3 ? 0 : 1;
  65   4            LED5 = i == 4 ? 0 : 1;
  66   4            LED6 = i == 5 ? 0 : 1;
  67   4            LED7 = i == 6 ? 0 : 1;
  68   4            LED8 = i == 7 ? 0 : 1;
  69   4            
  70   4            delay_ms(200);
  71   4          }
  72   3          
  73   3           for(i = 7 ; i >= 0 ; i--){
  74   4            LED1 = i == 0 ? 0 : 1;
  75   4            LED2 = i == 1 ? 0 : 1;
  76   4            LED3 = i == 2 ? 0 : 1;
  77   4            LED4 = i == 3 ? 0 : 1;
  78   4            LED5 = i == 4 ? 0 : 1;
  79   4            LED6 = i == 5 ? 0 : 1;
  80   4            LED7 = i == 6 ? 0 : 1;
  81   4            LED8 = i == 7 ? 0 : 1;
  82   4            
  83   4            delay_ms(200);
  84   4          }
  85   3         }
  86   2          
  87   2         for(m=0;m<3;m++){
  88   3             
  89   3           
  90   3           
  91   3            LED1 =LED7 =0;
  92   3            delay_ms(100);
  93   3            LED1 =LED7 =1;
  94   3            delay_ms(100);
  95   3           
  96   3            LED2 =LED8 =0;
  97   3            delay_ms(100);
  98   3            LED2 =LED8 =1;
  99   3            delay_ms(100);
 100   3            
 101   3            LED4 =LED6 =0;
 102   3            delay_ms(100);
 103   3            LED4 =LED6 =1;
 104   3            delay_ms(100);
 105   3           
 106   3            LED3 =LED5 =0;
 107   3            delay_ms(100);
 108   3            LED3 =LED5 =1;
 109   3            delay_ms(100);
 110   3           
 111   3            LED3 =LED5 =0;
 112   3            delay_ms(100);
 113   3            LED3 =LED5 =1;
 114   3            delay_ms(100);
 115   3            
 116   3            LED4 =LED6 =0;
C51 COMPILER V9.60.7.0   LED                                                               12/30/2023 11:55:39 PAGE 3   

 117   3            delay_ms(100);
 118   3            LED4 =LED6 =1;
 119   3            delay_ms(100);
 120   3           
 121   3            LED2 =LED8 =0;
 122   3            delay_ms(100);
 123   3            LED2 =LED8 =1;
 124   3            delay_ms(100);
 125   3            
 126   3            LED1 =LED7 =0;
 127   3            delay_ms(100);
 128   3            LED1 =LED7 =1;
 129   3            delay_ms(100);
 130   3            
 131   3            for(n=0;n<3;n++){
 132   4            LED1 =LED2 =LED3 =LED4 =LED5 =LED6 =LED7=LED8 =0;
 133   4            delay_ms(150);
 134   4            LED1 =LED2 =LED3 =LED4 =LED5 =LED6 =LED7=LED8 =1;
 135   4            delay_ms(150);
 136   4          
 137   4            }
 138   3             for(b=0;b<3;b++){
 139   4            LED1 =LED2 =LED3 =LED4 =LED5 =LED6 =LED7=LED8 =0;
 140   4            delay_ms(300);
 141   4            LED1 =LED2 =LED3 =LED4 =LED5 =LED6 =LED7=LED8 =1;
 142   4            delay_ms(300);
 143   4             }
 144   3            
 145   3          
 146   3           
 147   3            
 148   3         
 149   3         
 150   3         }
 151   2      
 152   2      //    for(m=0;m<3;m++){
 153   2      //    
 154   2      //    delay_ms(10);
 155   2      //    
 156   2      //    //一打开程序，就要去获取串口的数据，如果串口有数据过来，就去更新PWM
 157   2      //    if(COM1.RX_TimeOut > 0 && (--COM1.RX_TimeOut ==0)){
 158   2      //      
 159   2      //      if(COM1.RX_Cnt > 0 ){
 160   2      //          if(RX1_Buffer[0] == 0x01){ // 累加，从0到100的变化过程
 161   2      //             percent ++;
 162   2      //             if(percent >= 100) percent = 100;
 163   2      //          }else{ // 累减，从100 到0的变化过程
 164   2      //             percent --;
 165   2      //             if(percent <= 0) percent = 0;
 166   2      //          }
 167   2      //          
 168   2      //          //更新PWM
 169   2      //          
 170   2      //          duty_percent = Period *  percent / 100;
 171   2      //    
 172   2      //          //更新占空比
 173   2      //          duty.PWM3_Duty =  duty_percent;
 174   2      //          duty.PWM4_Duty =  duty_percent;
 175   2      //          duty.PWM5_Duty =  duty_percent;
 176   2      //          duty.PWM6_Duty =  duty_percent;
 177   2      //          duty.PWM7_Duty =  duty_percent;
 178   2      //          duty.PWM8_Duty =  duty_percent;         
C51 COMPILER V9.60.7.0   LED                                                               12/30/2023 11:55:39 PAGE 4   

 179   2      //          
 180   2      //          //更新PWM
 181   2      //          UpdatePwm(PWMA , &duty);
 182   2      //          UpdatePwm(PWMB , &duty);
 183   2      //          
 184   2      //          //清空串口数据
 185   2      //          COM1.RX_Cnt = 0;
 186   2      //      }
 187   2      //      
 188   2      //    }
 189   2      //  }
 190   2      //   
 191   2      }
 192   1      }


MODULE INFORMATION:   STATIC OVERLAYABLE
   CODE SIZE        =    825    ----
   CONSTANT SIZE    =   ----    ----
   XDATA SIZE       =   ----      12
   PDATA SIZE       =   ----    ----
   DATA SIZE        =   ----    ----
   IDATA SIZE       =   ----    ----
   BIT SIZE         =   ----    ----
END OF MODULE INFORMATION.


C51 COMPILATION COMPLETE.  0 WARNING(S),  0 ERROR(S)
