BL51 BANKED LINKER/LOCATER V6.22.4.0                                                    12/30/2023  11:55:39  PAGE 1


BL51 BANKED LINKER/LOCATER V6.22.4.0, INVOKED BY:
E:\QIANRUSHI\KEIL\C51\BIN\BL51.EXE .\Objects\main.obj, .\Objects\UART.obj, .\Objects\Delay.obj, .\Objects\GPIO.obj, .\Ob
>> jects\Soft_I2C.obj, .\Objects\STC8H_PWM.obj, .\Objects\PCA9685_servo.obj, .\Objects\BUZZER.obj, .\Objects\Ultrasonic.
>> obj, .\Objects\Bluetooth.obj, .\Objects\led.obj TO .\Objects\project RTX51TINY PRINT (.\Listings\project.m51) RAMSIZE
>>  (256) DISABLEWARNING (15, 16)


MEMORY MODEL: LARGE WITH FLOATING POINT ARITHMETIC


INPUT MODULES INCLUDED:
  .\Objects\main.obj (MAIN)
  .\Objects\UART.obj (UART)
  .\Objects\Delay.obj (DELAY)
  .\Objects\GPIO.obj (GPIO)
  .\Objects\Soft_I2C.obj (SOFT_I2C)
  .\Objects\STC8H_PWM.obj (STC8H_PWM)
  .\Objects\PCA9685_servo.obj (PCA9685_SERVO)
  .\Objects\BUZZER.obj (BUZZER)
  .\Objects\Ultrasonic.obj (ULTRASONIC)
  .\Objects\Bluetooth.obj (BLUETOOTH)
  .\Objects\led.obj (LED)
  E:\QIANRUSHI\KEIL\C51\LIB\RTX51TNY.LIB (?RTX51_TINY_OS_CREATE)
  E:\QIANRUSHI\KEIL\C51\LIB\RTX51TNY.LIB (?RTX51_TINY_OS_DELETE)
  E:\QIANRUSHI\KEIL\C51\LIB\RTX51TNY.LIB (?RTX51_TINY_OS_WAIT)
  E:\QIANRUSHI\KEIL\C51\LIB\RTX51TNY.LIB (?RTX51_TINY_KERNAL)
  E:\QIANRUSHI\KEIL\C51\LIB\C51FPL.LIB (?C?FPADD)
  E:\QIANRUSHI\KEIL\C51\LIB\C51FPL.LIB (?C?FPMUL)
  E:\QIANRUSHI\KEIL\C51\LIB\C51FPL.LIB (?C?FPDIV)
  E:\QIANRUSHI\KEIL\C51\LIB\C51FPL.LIB (?C?FCAST)
  E:\QIANRUSHI\KEIL\C51\LIB\C51FPL.LIB (?C?CASTF)
  E:\QIANRUSHI\KEIL\C51\LIB\C51FPL.LIB (PRINTF)
  E:\QIANRUSHI\KEIL\C51\LIB\C51FPL.LIB (?C?FPGETOPN)
  E:\QIANRUSHI\KEIL\C51\LIB\C51FPL.LIB (?C?FPROUND)
  E:\QIANRUSHI\KEIL\C51\LIB\C51FPL.LIB (?C?FPCONVERT)
  E:\QIANRUSHI\KEIL\C51\LIB\C51FPL.LIB (?C?FTNPWR)
  E:\QIANRUSHI\KEIL\C51\LIB\C51L.LIB (?C_STARTUP)
  E:\QIANRUSHI\KEIL\C51\LIB\C51L.LIB (?C?CLDPTR)
  E:\QIANRUSHI\KEIL\C51\LIB\C51L.LIB (?C?CLDOPTR)
  E:\QIANRUSHI\KEIL\C51\LIB\C51L.LIB (?C?CSTPTR)
  E:\QIANRUSHI\KEIL\C51\LIB\C51L.LIB (?C?IMUL)
  E:\QIANRUSHI\KEIL\C51\LIB\C51L.LIB (?C?ILDIX)
  E:\QIANRUSHI\KEIL\C51\LIB\C51L.LIB (?C?ILDPTR)
  E:\QIANRUSHI\KEIL\C51\LIB\C51L.LIB (?C?ILDOPTR)
  E:\QIANRUSHI\KEIL\C51\LIB\C51L.LIB (?C?ULDIV)
  E:\QIANRUSHI\KEIL\C51\LIB\C51L.LIB (?C?SLDIV)
  E:\QIANRUSHI\KEIL\C51\LIB\C51L.LIB (?C?LNEG)
  E:\QIANRUSHI\KEIL\C51\LIB\C51L.LIB (?C?ULCMP)
  E:\QIANRUSHI\KEIL\C51\LIB\C51L.LIB (?C?ULSHR)
  E:\QIANRUSHI\KEIL\C51\LIB\C51L.LIB (?C?LSTPTR)
  E:\QIANRUSHI\KEIL\C51\LIB\C51L.LIB (?C?LLDOPTR0)
  E:\QIANRUSHI\KEIL\C51\LIB\C51L.LIB (?C?LSTXDATA)
  E:\QIANRUSHI\KEIL\C51\LIB\C51L.LIB (?C?LSTKXDATA)
  E:\QIANRUSHI\KEIL\C51\LIB\C51L.LIB (?C?PLDIXDATA)
  E:\QIANRUSHI\KEIL\C51\LIB\C51L.LIB (?C?PSTXDATA)
  E:\QIANRUSHI\KEIL\C51\LIB\C51L.LIB (?C?CCASE)
  E:\QIANRUSHI\KEIL\C51\LIB\C51L.LIB (?C_INIT)
  E:\QIANRUSHI\KEIL\C51\LIB\C51L.LIB (?C?LLDIDATA0)
BL51 BANKED LINKER/LOCATER V6.22.4.0                                                  12/30/2023  11:55:39  PAGE 2


  E:\QIANRUSHI\KEIL\C51\LIB\C51L.LIB (?C?LLDXDATA0)
  E:\QIANRUSHI\KEIL\C51\LIB\C51L.LIB (?C?LLDPDATA0)
  E:\QIANRUSHI\KEIL\C51\LIB\C51L.LIB (?C?LLDCODE0)
  E:\QIANRUSHI\KEIL\C51\LIB\C51L.LIB (?C?LSTIDATA)
  E:\QIANRUSHI\KEIL\C51\LIB\C51L.LIB (?C?LSTPDATA)


TASK TABLE OF MODULE:  .\Objects\project (MAIN)

TASKID   PRIORITY   REG-BANK   SEGMENT NAME
-------------------------------------------
0        0          0          ?PR?TASK_MAIN?MAIN
1        0          0          ?PR?TASK1?MAIN
2        0          0          ?PR?TASK2?MAIN
3        0          0          ?PR?TASK3?MAIN
4        0          0          ?PR?TASK4?MAIN
5        0          0          ?PR?TASK5?MAIN
6        0          0          ?PR?TASK6?MAIN
7        0          0          ?PR?TASK7?MAIN
8        0          0          ?PR?TASK8?MAIN
9        0          0          ?PR?TASK9?MAIN
10       0          0          ?PR?TASK10?MAIN
11       0          0          ?PR?TASK11?MAIN
12       0          0          ?PR?TASK12?MAIN
13       0          0          ?PR?TASK13?MAIN
14       0          0          ?PR?TASK14?MAIN



LINK MAP OF MODULE:  .\Objects\project (MAIN)


            TYPE    BASE      LENGTH    RELOCATION   SEGMENT NAME
            -----------------------------------------------------

            * * * * * * *   D A T A   M E M O R Y   * * * * * * *
            REG     0000H     0008H     ABSOLUTE     "REG BANK 0"
            DATA    0008H     0006H     ABSOLUTE     
            DATA    000EH     0005H     UNIT         _DATA_GROUP_
                    0013H     000DH                  *** GAP ***
            BIT     0020H.0   0001H.1   UNIT         _BIT_GROUP_
            BIT     0021H.1   0000H.1   UNIT         ?RTX?BITS
                    0021H.2   0000H.6                *** GAP ***
            IDATA   0022H     001EH     UNIT         ?RTX?TASKSTATE?S
            IDATA   0040H     000FH     UNIT         ?RTX?TASKSP?S
            IDATA   004FH     0001H     UNIT         ?STACK

            * * * * * * *  X D A T A   M E M O R Y  * * * * * * *
            XDATA   0000H     020AH     UNIT         ?XD?UART
            XDATA   020AH     0121H     UNIT         _XDATA_GROUP_
            XDATA   032BH     003DH     UNIT         ?XD?MAIN
            XDATA   0368H     0003H     UNIT         ?XD?_PCA9685_SETPIN?PCA9685_SERVO

            * * * * * * *   C O D E   M E M O R Y   * * * * * * *
            CODE    0000H     0003H     ABSOLUTE     
            CODE    0003H     0008H     UNIT         ?PR?S_NOACK?SOFT_I2C
            CODE    000BH     0003H     ABSOLUTE     
BL51 BANKED LINKER/LOCATER V6.22.4.0                                                  12/30/2023  11:55:39  PAGE 3


            CODE    000EH     0014H     UNIT         ?PR?BUZZER_STOP?BUZZER
                    0022H     0001H                  *** GAP ***
            CODE    0023H     0003H     ABSOLUTE     
            CODE    0026H     001DH     UNIT         ?PR?_I2C_WRITEABYTE?SOFT_I2C
            CODE    0043H     0003H     ABSOLUTE     
            CODE    0046H     080DH     UNIT         ?C?LIB_CODE
            CODE    0853H     0483H     UNIT         ?PR?PRINTF?PRINTF
            CODE    0CD6H     0412H     UNIT         ?PR?_PWM_CONFIGURATION?STC8H_PWM
            CODE    10E8H     032BH     UNIT         ?PR?_UART_CONFIGURATION?UART
            CODE    1413H     02E3H     UNIT         ?RTX?CODE
            CODE    16F6H     02CEH     UNIT         ?PR?LED_PLAY?LED
            CODE    19C4H     0259H     UNIT         ?PR?TASK14?MAIN
            CODE    1C1DH     0254H     UNIT         ?PR?_GPIO_INILIZE?GPIO
            CODE    1E71H     021EH     UNIT         ?PR?TASK5?MAIN
            CODE    208FH     015CH     UNIT         ?PR?TASK6?MAIN
            CODE    21EBH     014DH     UNIT         ?PR?_UPDATEPWM?STC8H_PWM
            CODE    2338H     014BH     UNIT         ?PR?TASK3?MAIN
            CODE    2483H     010EH     UNIT         ?CO?MAIN
            CODE    2591H     00F4H     UNIT         ?PR?TASK4?MAIN
            CODE    2685H     00F0H     UNIT         ?PR?TASK12?MAIN
            CODE    2775H     00D1H     UNIT         ?PR?_PCA9685_SETPWMFREQ?PCA9685_SERVO
            CODE    2846H     00ACH     UNIT         ?PR?_SETSERVOPULSE?PCA9685_SERVO
            CODE    28F2H     00AAH     UNIT         ?PR?TASK1?MAIN
            CODE    299CH     00A4H     UNIT         ?PR?_PCA9685_SETPIN?PCA9685_SERVO
            CODE    2A40H     0092H     UNIT         ?PR?_DO_WORK?MAIN
            CODE    2AD2H     008FH     UNIT         ?PR?_ULTRASONIC_VALUE?ULTRASONIC
            CODE    2B61H     008CH     UNIT         ?C_C51STARTUP
            CODE    2BEDH     0088H     UNIT         ?PR?_BUZZER_WORK?BUZZER
            CODE    2C75H     0082H     UNIT         ?PR?TASK2?MAIN
            CODE    2CF7H     007FH     UNIT         ?PR?_NVIC_PWM_INIT?STC8H_PWM
            CODE    2D76H     006DH     UNIT         ?PR?BLUETOOTH_INIT?BLUETOOTH
            CODE    2DE3H     0064H     UNIT         ?PR?TASK7?MAIN
            CODE    2E47H     0056H     UNIT         ?PR?_PCA9685_SETPWM?PCA9685_SERVO
            CODE    2E9DH     0052H     UNIT         ?PR?UART2_ISR_HANDLER?UART
            CODE    2EEFH     0052H     UNIT         ?PR?_SI2C_READNBYTE?SOFT_I2C
            CODE    2F41H     0050H     UNIT         ?PR?GPIO_CONFIG?LED
            CODE    2F91H     004FH     UNIT         ?PR?BLUETOOTH_ACCEPT?BLUETOOTH
            CODE    2FE0H     004EH     UNIT         ?PR?_SETSERVODEGREE?PCA9685_SERVO
            CODE    302EH     004CH     UNIT         ?PR?UART1_ISR_HANDLER?UART
            CODE    307AH     0047H     UNIT         ?PR?BLUETOOTH_SEND?BLUETOOTH
            CODE    30C1H     0044H     UNIT         ?C?LDIV
            CODE    3105H     0043H     UNIT         ?PR?_NVIC_UART2_INIT?UART
            CODE    3148H     0043H     UNIT         ?PR?BUZZER_CONFIG?BUZZER
            CODE    318BH     0041H     UNIT         ?PR?_NVIC_UART1_INIT?UART
            CODE    31CCH     003FH     UNIT         ?PR?POSTURE_INIT?MAIN
            CODE    320BH     003DH     UNIT         ?C_INITSEG
            CODE    3248H     0037H     UNIT         ?PR?_SI2C_WRITENBYTE?SOFT_I2C
            CODE    327FH     0031H     UNIT         ?PR?UART_CONFIG?MAIN
            CODE    32B0H     002BH     UNIT         ?PR?ULTRASONIC_INIT?ULTRASONIC
            CODE    32DBH     001EH     UNIT         ?PR?_DURATIONS_TIME?MAIN
            CODE    32F9H     001EH     UNIT         ?RTX?TASKENT?S
            CODE    3317H     001BH     UNIT         ?PR?I2C_READABYTE?SOFT_I2C
            CODE    3332H     001BH     UNIT         ?PR?_WRSENSORREG8_8?PCA9685_SERVO
            CODE    334DH     001AH     UNIT         ?PR?SYS_INIT?MAIN
            CODE    3367H     0017H     UNIT         ?PR?GPIO_CONFIG?PCA9685_SERVO
            CODE    337EH     0013H     UNIT         ?PR?_PRINTSTRING1?UART
            CODE    3391H     0013H     UNIT         ?PR?_PRINTSTRING2?UART
BL51 BANKED LINKER/LOCATER V6.22.4.0                                                  12/30/2023  11:55:39  PAGE 4


            CODE    33A4H     0013H     UNIT         ?PR?LED_STOP?LED
            CODE    33B7H     0012H     UNIT         ?PR?TASK_MAIN?MAIN
            CODE    33C9H     0011H     UNIT         ?PR?I2C_CHECK_ACK?SOFT_I2C
            CODE    33DAH     0011H     UNIT         ?PR?PCA9685_INIT?PCA9685_SERVO
            CODE    33EBH     0010H     UNIT         ?PR?_DELAY_MS?DELAY
            CODE    33FBH     0010H     UNIT         ?PR?PCA9685_RESET?PCA9685_SERVO
            CODE    340BH     0010H     UNIT         ?PR?_RDSENSORREG8_8?PCA9685_SERVO
            CODE    341BH     000FH     UNIT         ?PR?_TX1_WRITE2BUFF?UART
            CODE    342AH     000FH     UNIT         ?PR?_TX2_WRITE2BUFF?UART
            CODE    3439H     000DH     UNIT         ?PR?TASK11?MAIN
            CODE    3446H     000DH     UNIT         ?PR?I2C_START?SOFT_I2C
            CODE    3453H     000CH     UNIT         ?PR?TASK9?MAIN
            CODE    345FH     000CH     UNIT         ?PR?TASK10?MAIN
            CODE    346BH     000CH     UNIT         ?PR?TASK13?MAIN
            CODE    3477H     000CH     UNIT         ?PR?I2C_DELAY?SOFT_I2C
            CODE    3483H     000BH     UNIT         ?PR?_FLOOR?PCA9685_SERVO
            CODE    348EH     000AH     UNIT         ?PR?I2C_STOP?SOFT_I2C
            CODE    3498H     000AH     UNIT         ?PR?S_ACK?SOFT_I2C
            CODE    34A2H     0008H     UNIT         ?PR?LED_INIT?LED
            CODE    34AAH     0006H     UNIT         ?PR?BUZZER_INIT?BUZZER
            CODE    34B0H     0005H     UNIT         ?PR?_PUTCHAR?UART
            CODE    34B5H     0005H     UNIT         ?PR?DELAY10US?ULTRASONIC
            CODE    34BAH     0003H     UNIT         ?PR?TASK8?MAIN



OVERLAY MAP OF MODULE:   .\Objects\project (MAIN)


SEGMENT                                          BIT_GROUP          DATA_GROUP          XDATA_GROUP
  +--> CALLED SEGMENT                         START    LENGTH     START    LENGTH     START    LENGTH
-----------------------------------------------------------------------------------------------------
?PR?TASK1?MAIN                                -----    -----      -----    -----      -----    -----
  +--> ?PR?POSTURE_INIT?MAIN
  +--> ?PR?_SETSERVODEGREE?PCA9685_SERVO

?PR?POSTURE_INIT?MAIN                         -----    -----      -----    -----      -----    -----
  +--> ?PR?_SETSERVODEGREE?PCA9685_SERVO

?PR?_SETSERVODEGREE?PCA9685_SERVO             -----    -----      -----    -----      0311H    0005H
  +--> ?PR?_SETSERVOPULSE?PCA9685_SERVO

?PR?_SETSERVOPULSE?PCA9685_SERVO              -----    -----      -----    -----      0316H    0009H
  +--> ?PR?_PCA9685_SETPWM?PCA9685_SERVO

?PR?_PCA9685_SETPWM?PCA9685_SERVO             -----    -----      -----    -----      031FH    0005H
  +--> ?PR?_WRSENSORREG8_8?PCA9685_SERVO

?PR?_WRSENSORREG8_8?PCA9685_SERVO             -----    -----      -----    -----      0324H    0001H
  +--> ?PR?_SI2C_WRITENBYTE?SOFT_I2C

?PR?_SI2C_WRITENBYTE?SOFT_I2C                 -----    -----      -----    -----      0325H    0006H
  +--> ?PR?I2C_START?SOFT_I2C
  +--> ?PR?_I2C_WRITEABYTE?SOFT_I2C
  +--> ?PR?I2C_CHECK_ACK?SOFT_I2C
  +--> ?PR?I2C_STOP?SOFT_I2C

BL51 BANKED LINKER/LOCATER V6.22.4.0                                                  12/30/2023  11:55:39  PAGE 5


?PR?I2C_START?SOFT_I2C                        -----    -----      -----    -----      -----    -----
  +--> ?PR?I2C_DELAY?SOFT_I2C

?PR?_I2C_WRITEABYTE?SOFT_I2C                  -----    -----      -----    -----      -----    -----
  +--> ?PR?I2C_DELAY?SOFT_I2C

?PR?I2C_CHECK_ACK?SOFT_I2C                    -----    -----      -----    -----      -----    -----
  +--> ?PR?_I2C_WRITEABYTE?SOFT_I2C
  +--> ?PR?I2C_DELAY?SOFT_I2C

?PR?I2C_STOP?SOFT_I2C                         -----    -----      -----    -----      -----    -----
  +--> ?PR?I2C_DELAY?SOFT_I2C

*** NEW ROOT ***************************************************

?PR?TASK2?MAIN                                -----    -----      -----    -----      0224H    0001H
  +--> ?CO?MAIN
  +--> ?PR?_BUZZER_WORK?BUZZER
  +--> ?PR?_DURATIONS_TIME?MAIN
  +--> ?PR?BUZZER_STOP?BUZZER

?PR?_BUZZER_WORK?BUZZER                       -----    -----      -----    -----      0225H    000BH
  +--> ?PR?_PWM_CONFIGURATION?STC8H_PWM
  +--> ?PR?_NVIC_PWM_INIT?STC8H_PWM

?PR?_DURATIONS_TIME?MAIN                      -----    -----      -----    -----      0225H    0002H
  +--> ?PR?_DELAY_MS?DELAY

?PR?BUZZER_STOP?BUZZER                        -----    -----      -----    -----      0225H    0009H
  +--> ?PR?_PWM_CONFIGURATION?STC8H_PWM

*** NEW ROOT ***************************************************

?PR?TASK3?MAIN                                -----    -----      -----    -----      0230H    0003H
  +--> ?PR?POSTURE_INIT?MAIN
  +--> ?PR?_SETSERVODEGREE?PCA9685_SERVO

*** NEW ROOT ***************************************************

?PR?TASK4?MAIN                                -----    -----      -----    -----      024DH    0001H
  +--> ?PR?_SETSERVODEGREE?PCA9685_SERVO
  +--> ?PR?POSTURE_INIT?MAIN

*** NEW ROOT ***************************************************

?PR?TASK5?MAIN                                -----    -----      -----    -----      0268H    0001H
  +--> ?PR?_SETSERVODEGREE?PCA9685_SERVO

*** NEW ROOT ***************************************************

?PR?TASK14?MAIN                               -----    -----      -----    -----      0283H    0001H
  +--> ?PR?POSTURE_INIT?MAIN
  +--> ?PR?_SETSERVODEGREE?PCA9685_SERVO

*** NEW ROOT ***************************************************

?PR?TASK6?MAIN                                -----    -----      -----    -----      029EH    0001H
BL51 BANKED LINKER/LOCATER V6.22.4.0                                                  12/30/2023  11:55:39  PAGE 6


  +--> ?PR?POSTURE_INIT?MAIN
  +--> ?PR?_SETSERVODEGREE?PCA9685_SERVO

*** NEW ROOT ***************************************************

?PR?TASK7?MAIN                                -----    -----      -----    -----      -----    -----
  +--> ?PR?_ULTRASONIC_VALUE?ULTRASONIC
  +--> ?CO?MAIN
  +--> ?PR?PRINTF?PRINTF

?PR?_ULTRASONIC_VALUE?ULTRASONIC              -----    -----      -----    -----      02B9H    0003H
  +--> ?PR?DELAY10US?ULTRASONIC

?PR?PRINTF?PRINTF                             0020H.0  0001H.1    000EH    0005H      02B9H    0030H
  +--> ?PR?_PUTCHAR?UART

?PR?_PUTCHAR?UART                             -----    -----      -----    -----      -----    -----
  +--> ?PR?_TX1_WRITE2BUFF?UART

*** NEW ROOT ***************************************************

?PR?TASK8?MAIN                                -----    -----      -----    -----      -----    -----
  +--> ?PR?LED_PLAY?LED

?PR?LED_PLAY?LED                              -----    -----      -----    -----      02E9H    000AH
  +--> ?PR?_DELAY_MS?DELAY

*** NEW ROOT ***************************************************

?PR?TASK9?MAIN                                -----    -----      -----    -----      -----    -----
  +--> ?PR?BLUETOOTH_SEND?BLUETOOTH

?PR?BLUETOOTH_SEND?BLUETOOTH                  -----    -----      -----    -----      02F3H    0001H
  +--> ?PR?_TX2_WRITE2BUFF?UART

*** NEW ROOT ***************************************************

?PR?TASK10?MAIN                               -----    -----      -----    -----      -----    -----
  +--> ?PR?BLUETOOTH_ACCEPT?BLUETOOTH

?PR?BLUETOOTH_ACCEPT?BLUETOOTH                -----    -----      -----    -----      02F4H    0001H
  +--> ?PR?_TX1_WRITE2BUFF?UART
  +--> ?PR?_DO_WORK?MAIN

?PR?_DO_WORK?MAIN                             -----    -----      -----    -----      02F5H    0001H

*** NEW ROOT ***************************************************

?PR?TASK11?MAIN                               -----    -----      -----    -----      -----    -----
  +--> ?PR?LED_STOP?LED

*** NEW ROOT ***************************************************

?PR?TASK12?MAIN                               -----    -----      -----    -----      02F6H    0001H
  +--> ?PR?POSTURE_INIT?MAIN
  +--> ?PR?_SETSERVODEGREE?PCA9685_SERVO

BL51 BANKED LINKER/LOCATER V6.22.4.0                                                  12/30/2023  11:55:39  PAGE 7


*** NEW ROOT ***************************************************

?PR?TASK_MAIN?MAIN                            -----    -----      -----    -----      -----    -----
  +--> ?PR?SYS_INIT?MAIN

?PR?SYS_INIT?MAIN                             -----    -----      -----    -----      -----    -----
  +--> ?PR?UART_CONFIG?MAIN
  +--> ?PR?BUZZER_INIT?BUZZER
  +--> ?PR?PCA9685_INIT?PCA9685_SERVO
  +--> ?PR?ULTRASONIC_INIT?ULTRASONIC
  +--> ?PR?BLUETOOTH_INIT?BLUETOOTH
  +--> ?PR?LED_INIT?LED
  +--> ?PR?POSTURE_INIT?MAIN

?PR?UART_CONFIG?MAIN                          -----    -----      -----    -----      0311H    0009H
  +--> ?PR?_UART_CONFIGURATION?UART
  +--> ?PR?_NVIC_UART1_INIT?UART

?PR?_UART_CONFIGURATION?UART                  -----    -----      -----    -----      031AH    000AH

?PR?BUZZER_INIT?BUZZER                        -----    -----      -----    -----      -----    -----
  +--> ?PR?BUZZER_CONFIG?BUZZER

?PR?BUZZER_CONFIG?BUZZER                      -----    -----      -----    -----      0311H    0002H
  +--> ?PR?_GPIO_INILIZE?GPIO

?PR?PCA9685_INIT?PCA9685_SERVO                -----    -----      -----    -----      -----    -----
  +--> ?PR?GPIO_CONFIG?PCA9685_SERVO
  +--> ?PR?PCA9685_RESET?PCA9685_SERVO
  +--> ?PR?_PCA9685_SETPWMFREQ?PCA9685_SERVO

?PR?GPIO_CONFIG?PCA9685_SERVO                 -----    -----      -----    -----      0311H    0002H
  +--> ?PR?_GPIO_INILIZE?GPIO

?PR?PCA9685_RESET?PCA9685_SERVO               -----    -----      -----    -----      -----    -----
  +--> ?PR?_DELAY_MS?DELAY
  +--> ?PR?_WRSENSORREG8_8?PCA9685_SERVO

?PR?_PCA9685_SETPWMFREQ?PCA9685_SERVO         -----    -----      -----    -----      0311H    000AH
  +--> ?PR?_FLOOR?PCA9685_SERVO
  +--> ?PR?_RDSENSORREG8_8?PCA9685_SERVO
  +--> ?PR?_WRSENSORREG8_8?PCA9685_SERVO
  +--> ?PR?_DELAY_MS?DELAY

?PR?_RDSENSORREG8_8?PCA9685_SERVO             -----    -----      -----    -----      -----    -----
  +--> ?PR?_SI2C_READNBYTE?SOFT_I2C

?PR?_SI2C_READNBYTE?SOFT_I2C                  -----    -----      -----    -----      031BH    0006H
  +--> ?PR?I2C_START?SOFT_I2C
  +--> ?PR?I2C_CHECK_ACK?SOFT_I2C
  +--> ?PR?_I2C_WRITEABYTE?SOFT_I2C
  +--> ?PR?I2C_READABYTE?SOFT_I2C
  +--> ?PR?S_ACK?SOFT_I2C
  +--> ?PR?S_NOACK?SOFT_I2C
  +--> ?PR?I2C_STOP?SOFT_I2C

?PR?I2C_READABYTE?SOFT_I2C                    -----    -----      -----    -----      -----    -----
BL51 BANKED LINKER/LOCATER V6.22.4.0                                                  12/30/2023  11:55:39  PAGE 8


  +--> ?PR?I2C_DELAY?SOFT_I2C

?PR?S_ACK?SOFT_I2C                            -----    -----      -----    -----      -----    -----
  +--> ?PR?I2C_DELAY?SOFT_I2C

?PR?S_NOACK?SOFT_I2C                          -----    -----      -----    -----      -----    -----
  +--> ?PR?I2C_DELAY?SOFT_I2C

?PR?ULTRASONIC_INIT?ULTRASONIC                -----    -----      -----    -----      0311H    0002H
  +--> ?PR?_GPIO_INILIZE?GPIO

?PR?BLUETOOTH_INIT?BLUETOOTH                  -----    -----      -----    -----      0311H    0009H
  +--> ?PR?_UART_CONFIGURATION?UART
  +--> ?PR?_NVIC_UART1_INIT?UART
  +--> ?PR?_NVIC_UART2_INIT?UART

?PR?LED_INIT?LED                              -----    -----      -----    -----      -----    -----
  +--> ?PR?GPIO_CONFIG?LED

?PR?GPIO_CONFIG?LED                           -----    -----      -----    -----      0311H    0002H
  +--> ?PR?_GPIO_INILIZE?GPIO

*** NEW ROOT ***************************************************

?C_C51STARTUP                                 -----    -----      -----    -----      -----    -----
  +--> ?C_INITSEG



SYMBOL TABLE OF MODULE:  .\Objects\project (MAIN)

  VALUE           TYPE          NAME
  ----------------------------------

  -------         MODULE        MAIN
  C:0000H         SYMBOL        _ICE_DUMMY_
  D:0080H         PUBLIC        P0
  D:0090H         PUBLIC        P1
  D:00A0H         PUBLIC        P2
  X:032BH         PUBLIC        FREQS
  D:00B0H         PUBLIC        P3
  D:00C0H         PUBLIC        P4
  D:00C8H         PUBLIC        P5
  D:00E8H         PUBLIC        P6
  B:00A8H.7       PUBLIC        EA
  D:00F8H         PUBLIC        P7
  D:00A2H         PUBLIC        P_SW1
  D:00BAH         PUBLIC        P_SW2
  D:00A8H         PUBLIC        IE
  C:345FH         PUBLIC        task10
  C:3439H         PUBLIC        task11
  C:327FH         PUBLIC        UART_config
  C:2685H         PUBLIC        task12
  D:00B8H         PUBLIC        IP
  C:346BH         PUBLIC        task13
  C:19C4H         PUBLIC        task14
  X:0363H         PUBLIC        flag
BL51 BANKED LINKER/LOCATER V6.22.4.0                                                  12/30/2023  11:55:39  PAGE 9


  C:2489H         PUBLIC        notes
  C:31CCH         PUBLIC        posture_init
  B:00A0H.0       PUBLIC        P20
  B:00A0H.1       PUBLIC        P21
  B:00A0H.2       PUBLIC        P22
  D:0098H         PUBLIC        SCON
  B:00A0H.3       PUBLIC        P23
  B:0090H.4       PUBLIC        P14
  D:0088H         PUBLIC        TCON
  B:0090H.5       PUBLIC        P15
  B:00B0H.5       PUBLIC        P35
  B:00A0H.6       PUBLIC        P26
  B:00A0H.7       PUBLIC        P27
  C:33B7H         PUBLIC        task_main
  X:0364H         PUBLIC        dis
  C:250DH         PUBLIC        durations
  C:28F2H         PUBLIC        task1
  C:2C75H         PUBLIC        task2
  C:2338H         PUBLIC        task3
  C:2591H         PUBLIC        task4
  C:1E71H         PUBLIC        task5
  C:208FH         PUBLIC        task6
  C:2DE3H         PUBLIC        task7
  C:34BAH         PUBLIC        task8
  C:3453H         PUBLIC        task9
  C:32DBH         PUBLIC        _durations_time
  C:334DH         PUBLIC        sys_init
  C:2A40H         PUBLIC        _do_work
  D:00D0H         PUBLIC        PSW
  -------         PROC          _DURATIONS_TIME
  X:0225H         SYMBOL        time
  C:32DBH         LINE#         58
  C:32E3H         LINE#         59
  C:32F1H         LINE#         60
  C:32F6H         LINE#         61
  C:32F8H         LINE#         62
  -------         ENDPROC       _DURATIONS_TIME
  -------         PROC          UART_CONFIG
  -------         DO            
  X:0311H         SYMBOL        COMx_InitStructure
  -------         ENDDO         
  C:327FH         LINE#         65
  C:327FH         LINE#         68
  C:3285H         LINE#         69
  C:3289H         LINE#         70
  C:3291H         LINE#         71
  C:3297H         LINE#         72
  C:329AH         LINE#         73
  C:32A5H         LINE#         75
  C:32ACH         LINE#         76
  C:32AFH         LINE#         77
  -------         ENDPROC       UART_CONFIG
  -------         PROC          POSTURE_INIT
  C:31CCH         LINE#         80
  C:31CCH         LINE#         81
  C:31D3H         LINE#         82
  C:31DAH         LINE#         83
BL51 BANKED LINKER/LOCATER V6.22.4.0                                                  12/30/2023  11:55:39  PAGE 10


  C:31E1H         LINE#         84
  C:31E8H         LINE#         85
  C:31EFH         LINE#         86
  C:31F6H         LINE#         87
  C:31FDH         LINE#         88
  C:3204H         LINE#         89
  -------         ENDPROC       POSTURE_INIT
  -------         PROC          TASK1
  C:28F2H         LINE#         93
  C:28F2H         LINE#         95
  C:28F7H         LINE#         96
  C:28FCH         LINE#         97
  C:2901H         LINE#         98
  C:2906H         LINE#         99
  C:290BH         LINE#         100
  C:2910H         LINE#         101
  C:2915H         LINE#         102
  C:291AH         LINE#         103
  C:291FH         LINE#         104
  C:2924H         LINE#         106
  C:2927H         LINE#         107
  C:292EH         LINE#         108
  C:2935H         LINE#         110
  C:293CH         LINE#         111
  C:2943H         LINE#         112
  C:294AH         LINE#         113
  C:2951H         LINE#         114
  C:2958H         LINE#         115
  C:295FH         LINE#         116
  C:2966H         LINE#         117
  C:296DH         LINE#         119
  C:2974H         LINE#         120
  C:297BH         LINE#         121
  C:2982H         LINE#         122
  C:2989H         LINE#         124
  C:2990H         LINE#         125
  C:2997H         LINE#         128
  -------         ENDPROC       TASK1
  -------         PROC          TASK2
  -------         DO            
  X:0224H         SYMBOL        i
  -------         ENDDO         
  C:2C75H         LINE#         132
  C:2C75H         LINE#         135
  C:2C7AH         LINE#         136
  C:2C7FH         LINE#         137
  C:2C84H         LINE#         138
  C:2C89H         LINE#         139
  C:2C8EH         LINE#         140
  C:2C93H         LINE#         141
  C:2C98H         LINE#         142
  C:2C9DH         LINE#         143
  C:2CA2H         LINE#         144
  C:2CA7H         LINE#         146
  C:2CB6H         LINE#         147
  C:2CCEH         LINE#         148
  C:2CE0H         LINE#         149
BL51 BANKED LINKER/LOCATER V6.22.4.0                                                  12/30/2023  11:55:39  PAGE 11


  C:2CE8H         LINE#         150
  C:2CEBH         LINE#         151
  C:2CF2H         LINE#         152
  -------         ENDPROC       TASK2
  -------         PROC          TASK3
  -------         DO            
  X:0230H         SYMBOL        c
  X:0231H         SYMBOL        d
  X:0232H         SYMBOL        e
  -------         ENDDO         
  C:2338H         LINE#         156
  C:2338H         LINE#         157
  C:2341H         LINE#         159
  C:2346H         LINE#         160
  C:234BH         LINE#         161
  C:2350H         LINE#         162
  C:2355H         LINE#         163
  C:235AH         LINE#         164
  C:235FH         LINE#         165
  C:2364H         LINE#         166
  C:2369H         LINE#         167
  C:236EH         LINE#         168
  C:2373H         LINE#         170
  C:2376H         LINE#         172
  C:237FH         LINE#         173
  C:2386H         LINE#         174
  C:238DH         LINE#         175
  C:2394H         LINE#         176
  C:239BH         LINE#         178
  C:23A2H         LINE#         180
  C:23A9H         LINE#         181
  C:23B0H         LINE#         182
  C:23B7H         LINE#         183
  C:23BEH         LINE#         184
  C:23C5H         LINE#         185
  C:23CBH         LINE#         186
  C:23CDH         LINE#         187
  C:23D6H         LINE#         188
  C:23DDH         LINE#         189
  C:23E4H         LINE#         190
  C:23EBH         LINE#         191
  C:23F2H         LINE#         192
  C:23F9H         LINE#         194
  C:2400H         LINE#         195
  C:2407H         LINE#         196
  C:240EH         LINE#         197
  C:2415H         LINE#         198
  C:241CH         LINE#         199
  C:2422H         LINE#         200
  C:2424H         LINE#         202
  C:242DH         LINE#         203
  C:2434H         LINE#         204
  C:243BH         LINE#         205
  C:2442H         LINE#         206
  C:2449H         LINE#         208
  C:2450H         LINE#         210
  C:2457H         LINE#         211
BL51 BANKED LINKER/LOCATER V6.22.4.0                                                  12/30/2023  11:55:39  PAGE 12


  C:245EH         LINE#         212
  C:2465H         LINE#         213
  C:246CH         LINE#         214
  C:2473H         LINE#         215
  C:2479H         LINE#         216
  C:247BH         LINE#         218
  C:247EH         LINE#         219
  -------         ENDPROC       TASK3
  -------         PROC          TASK4
  -------         DO            
  X:024DH         SYMBOL        i
  -------         ENDDO         
  C:2591H         LINE#         224
  C:2591H         LINE#         227
  C:2596H         LINE#         228
  C:259BH         LINE#         229
  C:25A0H         LINE#         230
  C:25A5H         LINE#         231
  C:25AAH         LINE#         232
  C:25AFH         LINE#         233
  C:25B4H         LINE#         234
  C:25B9H         LINE#         235
  C:25BEH         LINE#         236
  C:25C3H         LINE#         237
  C:25C9H         LINE#         238
  C:25DBH         LINE#         239
  C:25E5H         LINE#         240
  C:25F1H         LINE#         241
  C:25FBH         LINE#         242
  C:260AH         LINE#         243
  C:2611H         LINE#         245
  C:2619H         LINE#         246
  C:261FH         LINE#         248
  C:2622H         LINE#         249
  C:2629H         LINE#         250
  C:2638H         LINE#         251
  C:2641H         LINE#         252
  C:2650H         LINE#         253
  C:265FH         LINE#         254
  C:266BH         LINE#         255
  C:2672H         LINE#         256
  C:267AH         LINE#         257
  C:267AH         LINE#         258
  C:2680H         LINE#         259
  -------         ENDPROC       TASK4
  -------         PROC          TASK5
  -------         DO            
  X:0268H         SYMBOL        i
  -------         ENDDO         
  C:1E71H         LINE#         263
  C:1E71H         LINE#         266
  C:1E76H         LINE#         267
  C:1E7BH         LINE#         268
  C:1E80H         LINE#         269
  C:1E85H         LINE#         270
  C:1E8AH         LINE#         271
  C:1E8FH         LINE#         272
BL51 BANKED LINKER/LOCATER V6.22.4.0                                                  12/30/2023  11:55:39  PAGE 13


  C:1E94H         LINE#         273
  C:1E99H         LINE#         274
  C:1E9EH         LINE#         275
  C:1EA3H         LINE#         277
  C:1EAAH         LINE#         278
  C:1EB1H         LINE#         279
  C:1EB8H         LINE#         280
  C:1EBFH         LINE#         282
  C:1EC6H         LINE#         283
  C:1ECDH         LINE#         284
  C:1ED4H         LINE#         285
  C:1EDBH         LINE#         287
  C:1EDBH         LINE#         289
  C:1EEBH         LINE#         290
  C:1EF4H         LINE#         291
  C:1F03H         LINE#         292
  C:1F0AH         LINE#         293
  C:1F12H         LINE#         294
  C:1F22H         LINE#         295
  C:1F2BH         LINE#         296
  C:1F3AH         LINE#         297
  C:1F41H         LINE#         298
  C:1F49H         LINE#         299
  C:1F59H         LINE#         300
  C:1F63H         LINE#         301
  C:1F6DH         LINE#         302
  C:1F74H         LINE#         303
  C:1F7CH         LINE#         304
  C:1F8CH         LINE#         305
  C:1F96H         LINE#         306
  C:1FA2H         LINE#         307
  C:1FA9H         LINE#         308
  C:1FB1H         LINE#         310
  C:1FC1H         LINE#         311
  C:1FCBH         LINE#         312
  C:1FD7H         LINE#         313
  C:1FDEH         LINE#         314
  C:1FE6H         LINE#         315
  C:1FF6H         LINE#         316
  C:2000H         LINE#         317
  C:200CH         LINE#         318
  C:2013H         LINE#         319
  C:201BH         LINE#         320
  C:202BH         LINE#         321
  C:2034H         LINE#         322
  C:2043H         LINE#         323
  C:204AH         LINE#         324
  C:2052H         LINE#         325
  C:2062H         LINE#         326
  C:2067H         LINE#         327
  C:2076H         LINE#         328
  C:207DH         LINE#         329
  C:2085H         LINE#         330
  C:208CH         LINE#         331
  -------         ENDPROC       TASK5
  -------         PROC          TASK14
  -------         DO            
BL51 BANKED LINKER/LOCATER V6.22.4.0                                                  12/30/2023  11:55:39  PAGE 14


  X:0283H         SYMBOL        i
  -------         ENDDO         
  C:19C4H         LINE#         335
  C:19C4H         LINE#         337
  C:19C7H         LINE#         338
  C:19CCH         LINE#         339
  C:19D1H         LINE#         340
  C:19D6H         LINE#         341
  C:19DBH         LINE#         342
  C:19E0H         LINE#         343
  C:19E5H         LINE#         344
  C:19EAH         LINE#         345
  C:19EFH         LINE#         346
  C:19F4H         LINE#         347
  C:19F9H         LINE#         348
  C:1A00H         LINE#         350
  C:1A07H         LINE#         351
  C:1A0EH         LINE#         352
  C:1A15H         LINE#         353
  C:1A1CH         LINE#         355
  C:1A23H         LINE#         356
  C:1A2AH         LINE#         357
  C:1A31H         LINE#         358
  C:1A38H         LINE#         360
  C:1A38H         LINE#         362
  C:1A48H         LINE#         363
  C:1A51H         LINE#         364
  C:1A60H         LINE#         365
  C:1A67H         LINE#         366
  C:1A6FH         LINE#         367
  C:1A76H         LINE#         368
  C:1A86H         LINE#         369
  C:1A8FH         LINE#         370
  C:1A9EH         LINE#         371
  C:1AA5H         LINE#         372
  C:1AADH         LINE#         373
  C:1AB4H         LINE#         374
  C:1AC4H         LINE#         375
  C:1ACEH         LINE#         376
  C:1AD8H         LINE#         377
  C:1ADFH         LINE#         378
  C:1AE7H         LINE#         379
  C:1AEEH         LINE#         380
  C:1AFEH         LINE#         381
  C:1B08H         LINE#         382
  C:1B14H         LINE#         383
  C:1B1BH         LINE#         384
  C:1B23H         LINE#         385
  C:1B2AH         LINE#         388
  C:1B3AH         LINE#         389
  C:1B44H         LINE#         390
  C:1B50H         LINE#         391
  C:1B57H         LINE#         392
  C:1B5FH         LINE#         393
  C:1B66H         LINE#         394
  C:1B76H         LINE#         395
  C:1B80H         LINE#         396
BL51 BANKED LINKER/LOCATER V6.22.4.0                                                  12/30/2023  11:55:39  PAGE 15


  C:1B8CH         LINE#         397
  C:1B93H         LINE#         398
  C:1B9BH         LINE#         399
  C:1BA2H         LINE#         400
  C:1BB2H         LINE#         401
  C:1BBBH         LINE#         402
  C:1BCAH         LINE#         403
  C:1BD1H         LINE#         404
  C:1BD9H         LINE#         405
  C:1BE0H         LINE#         406
  C:1BF0H         LINE#         407
  C:1BF5H         LINE#         408
  C:1C04H         LINE#         409
  C:1C0BH         LINE#         410
  C:1C13H         LINE#         411
  C:1C1AH         LINE#         412
  -------         ENDPROC       TASK14
  -------         PROC          TASK6
  -------         DO            
  X:029EH         SYMBOL        j
  -------         ENDDO         
  C:208FH         LINE#         415
  C:208FH         LINE#         417
  C:2094H         LINE#         418
  C:2099H         LINE#         419
  C:209EH         LINE#         420
  C:20A3H         LINE#         421
  C:20A8H         LINE#         422
  C:20ADH         LINE#         423
  C:20B2H         LINE#         424
  C:20B7H         LINE#         425
  C:20BCH         LINE#         426
  C:20C1H         LINE#         428
  C:20C4H         LINE#         430
  C:20C4H         LINE#         431
  C:20D3H         LINE#         432
  C:20DCH         LINE#         433
  C:20E8H         LINE#         434
  C:20EFH         LINE#         435
  C:20F7H         LINE#         436
  C:2106H         LINE#         437
  C:210FH         LINE#         438
  C:211BH         LINE#         439
  C:2122H         LINE#         440
  C:212AH         LINE#         441
  C:212FH         LINE#         442
  C:2136H         LINE#         443
  C:213DH         LINE#         444
  C:2144H         LINE#         445
  C:2153H         LINE#         446
  C:2162H         LINE#         447
  C:2169H         LINE#         448
  C:2170H         LINE#         449
  C:2177H         LINE#         450
  C:217EH         LINE#         451
  C:217EH         LINE#         452
  C:218AH         LINE#         453
BL51 BANKED LINKER/LOCATER V6.22.4.0                                                  12/30/2023  11:55:39  PAGE 16


  C:219BH         LINE#         454
  C:21A2H         LINE#         455
  C:21A9H         LINE#         456
  C:21B8H         LINE#         457
  C:21C7H         LINE#         458
  C:21CEH         LINE#         459
  C:21D5H         LINE#         460
  C:21DCH         LINE#         461
  C:21E3H         LINE#         462
  C:21E3H         LINE#         463
  -------         ENDPROC       TASK6
  -------         PROC          TASK7
  -------         DO            
  D:0007H         SYMBOL        returned
  -------         ENDDO         
  C:2DE3H         LINE#         469
  C:2DE3H         LINE#         471
  C:2DE8H         LINE#         472
  C:2DEDH         LINE#         473
  C:2DF2H         LINE#         474
  C:2DF7H         LINE#         475
  C:2DFCH         LINE#         476
  C:2E01H         LINE#         477
  C:2E06H         LINE#         478
  C:2E0BH         LINE#         479
  C:2E10H         LINE#         480
  C:2E15H         LINE#         481
  C:2E15H         LINE#         482
  C:2E1EH         LINE#         483
  C:2E21H         LINE#         484
  C:2E3EH         LINE#         485
  C:2E3EH         LINE#         486
  C:2E45H         LINE#         487
  -------         ENDPROC       TASK7
  -------         PROC          TASK8
  C:34BAH         LINE#         492
  C:34BAH         LINE#         493
  -------         ENDPROC       TASK8
  -------         PROC          TASK9
  C:3453H         LINE#         497
  C:3453H         LINE#         498
  C:3453H         LINE#         499
  C:3456H         LINE#         500
  C:345DH         LINE#         501
  -------         ENDPROC       TASK9
  -------         PROC          _DO_WORK
  X:02F5H         SYMBOL        dat
  C:2A40H         LINE#         503
  C:2A45H         LINE#         504
  C:2A48H         LINE#         506
  C:2A4DH         LINE#         507
  C:2A4DH         LINE#         508
  C:2A54H         LINE#         510
  C:2A59H         LINE#         511
  C:2A59H         LINE#         512
  C:2A60H         LINE#         514
  C:2A65H         LINE#         515
BL51 BANKED LINKER/LOCATER V6.22.4.0                                                  12/30/2023  11:55:39  PAGE 17


  C:2A65H         LINE#         516
  C:2A6CH         LINE#         517
  C:2A71H         LINE#         519
  C:2A71H         LINE#         520
  C:2A78H         LINE#         521
  C:2A7DH         LINE#         522
  C:2A7DH         LINE#         523
  C:2A84H         LINE#         524
  C:2A89H         LINE#         525
  C:2A89H         LINE#         526
  C:2A90H         LINE#         527
  C:2A95H         LINE#         528
  C:2A95H         LINE#         529
  C:2A9CH         LINE#         530
  C:2AA1H         LINE#         531
  C:2AA1H         LINE#         532
  C:2AA8H         LINE#         533
  C:2AADH         LINE#         534
  C:2AADH         LINE#         535
  C:2AB4H         LINE#         536
  C:2AB9H         LINE#         537
  C:2AB9H         LINE#         538
  C:2AC0H         LINE#         539
  C:2AC5H         LINE#         540
  C:2AC5H         LINE#         541
  C:2ACCH         LINE#         542
  C:2AD1H         LINE#         543
  C:2AD1H         LINE#         544
  -------         ENDPROC       _DO_WORK
  -------         PROC          TASK10
  C:345FH         LINE#         546
  C:345FH         LINE#         547
  C:345FH         LINE#         548
  C:3462H         LINE#         555
  C:3469H         LINE#         556
  -------         ENDPROC       TASK10
  -------         PROC          TASK11
  C:3439H         LINE#         560
  C:3439H         LINE#         561
  C:343EH         LINE#         562
  C:3441H         LINE#         563
  -------         ENDPROC       TASK11
  -------         PROC          TASK12
  -------         DO            
  X:02F6H         SYMBOL        i
  -------         ENDDO         
  C:2685H         LINE#         566
  C:2685H         LINE#         569
  C:268AH         LINE#         570
  C:268FH         LINE#         571
  C:2694H         LINE#         572
  C:2699H         LINE#         573
  C:269EH         LINE#         574
  C:26A3H         LINE#         575
  C:26A8H         LINE#         576
  C:26ADH         LINE#         577
  C:26B2H         LINE#         578
BL51 BANKED LINKER/LOCATER V6.22.4.0                                                  12/30/2023  11:55:39  PAGE 18


  C:26B7H         LINE#         579
  C:26BCH         LINE#         580
  C:26CEH         LINE#         581
  C:26D5H         LINE#         583
  C:26D8H         LINE#         586
  C:26DFH         LINE#         587
  C:26F2H         LINE#         588
  C:26FCH         LINE#         589
  C:2708H         LINE#         590
  C:2730H         LINE#         591
  C:2760H         LINE#         592
  C:2767H         LINE#         593
  C:2770H         LINE#         594
  -------         ENDPROC       TASK12
  -------         PROC          TASK13
  C:346BH         LINE#         597
  C:346BH         LINE#         598
  C:346BH         LINE#         599
  C:3470H         LINE#         600
  C:3475H         LINE#         601
  -------         ENDPROC       TASK13
  -------         PROC          SYS_INIT
  C:334DH         LINE#         606
  C:334DH         LINE#         608
  C:3350H         LINE#         610
  C:3353H         LINE#         612
  C:3356H         LINE#         614
  C:3359H         LINE#         616
  C:335CH         LINE#         618
  C:335FH         LINE#         620
  C:3362H         LINE#         622
  C:3364H         LINE#         624
  -------         ENDPROC       SYS_INIT
  -------         PROC          TASK_MAIN
  C:33B7H         LINE#         628
  C:33B7H         LINE#         630
  C:33BAH         LINE#         631
  C:33BFH         LINE#         632
  C:33C4H         LINE#         634
  -------         ENDPROC       TASK_MAIN
  -------         ENDMOD        MAIN

  -------         MODULE        UART
  C:0000H         SYMBOL        _ICE_DUMMY_
  C:10E8H         PUBLIC        _UART_Configuration
  D:0080H         PUBLIC        P0
  D:0090H         PUBLIC        P1
  D:00A0H         PUBLIC        P2
  D:00B0H         PUBLIC        P3
  D:00C0H         PUBLIC        P4
  D:00C8H         PUBLIC        P5
  D:00E8H         PUBLIC        P6
  D:00F8H         PUBLIC        P7
  D:00A8H         PUBLIC        IE
  X:0000H         PUBLIC        COM1
  X:0005H         PUBLIC        COM2
  D:00B6H         PUBLIC        IP2H
BL51 BANKED LINKER/LOCATER V6.22.4.0                                                  12/30/2023  11:55:39  PAGE 19


  D:008FH         PUBLIC        INTCLKO
  B:00A8H.4       PUBLIC        ES
  D:00B8H         PUBLIC        IP
  X:000AH         PUBLIC        RX1_Buffer
  X:008AH         PUBLIC        RX2_Buffer
  B:0098H.0       PUBLIC        RI
  X:010AH         PUBLIC        TX1_Buffer
  X:018AH         PUBLIC        TX2_Buffer
  B:0098H.1       PUBLIC        TI
  B:00B8H.4       PUBLIC        PS
  D:0099H         PUBLIC        SBUF
  D:0087H         PUBLIC        PCON
  D:0098H         PUBLIC        SCON
  D:0089H         PUBLIC        TMOD
  D:0088H         PUBLIC        TCON
  C:337EH         PUBLIC        _PrintString1
  C:3391H         PUBLIC        _PrintString2
  D:00AFH         PUBLIC        IE2
  D:008EH         PUBLIC        AUXR
  C:341BH         PUBLIC        _TX1_write2buff
  C:342AH         PUBLIC        _TX2_write2buff
  B:00A8H.3       PUBLIC        ET1
  D:00B5H         PUBLIC        IP2
  D:008DH         PUBLIC        TH1
  D:00D6H         PUBLIC        T2H
  D:008BH         PUBLIC        TL1
  D:00D7H         PUBLIC        T2L
  B:0088H.6       PUBLIC        TR1
  C:302EH         PUBLIC        UART1_ISR_Handler
  D:00B7H         PUBLIC        IPH
  C:2E9DH         PUBLIC        UART2_ISR_Handler
  D:009BH         PUBLIC        S2BUF
  B:0098H.4       PUBLIC        REN
  D:009AH         PUBLIC        S2CON
  C:318BH         PUBLIC        _NVIC_UART1_Init
  C:3105H         PUBLIC        _NVIC_UART2_Init
  D:00D0H         PUBLIC        PSW
  C:34B0H         PUBLIC        _putchar
  -------         PROC          _UART_CONFIGURATION
  X:031AH         SYMBOL        UARTx
  X:031BH         SYMBOL        COMx
  -------         DO            
  X:031EH         SYMBOL        i
  X:0320H         SYMBOL        j
  -------         ENDDO         
  C:10E8H         LINE#         47
  C:10F8H         LINE#         48
  C:10F8H         LINE#         58
  C:10FFH         LINE#         59
  C:10FFH         LINE#         60
  C:1103H         LINE#         61
  C:1105H         LINE#         62
  C:1107H         LINE#         63
  C:1109H         LINE#         64
  C:110BH         LINE#         66
  C:113DH         LINE#         67
  C:1170H         LINE#         69
BL51 BANKED LINKER/LOCATER V6.22.4.0                                                  12/30/2023  11:55:39  PAGE 20


  C:1186H         LINE#         70
  C:1193H         LINE#         71
  C:1193H         LINE#         72
  C:11AAH         LINE#         73
  C:11C7H         LINE#         74
  C:11E9H         LINE#         75
  C:11FFH         LINE#         76
  C:11FFH         LINE#         77
  C:1201H         LINE#         78
  C:1204H         LINE#         79
  C:1207H         LINE#         80
  C:120AH         LINE#         81
  C:120DH         LINE#         82
  C:1222H         LINE#         83
  C:122BH         LINE#         84
  C:122DH         LINE#         85
  C:1230H         LINE#         86
  C:1233H         LINE#         87
  C:1235H         LINE#         88
  C:1237H         LINE#         89
  C:123CH         LINE#         90
  C:123CH         LINE#         91
  C:123FH         LINE#         92
  C:1242H         LINE#         93
  C:1245H         LINE#         94
  C:1248H         LINE#         95
  C:125DH         LINE#         96
  C:1266H         LINE#         97
  C:1269H         LINE#         98
  C:126CH         LINE#         99
  C:126EH         LINE#         100
  C:1271H         LINE#         101
  C:1271H         LINE#         102
  C:1282H         LINE#         103
  C:1282H         LINE#         104
  C:1290H         LINE#         105
  C:1293H         LINE#         106
  C:1295H         LINE#         107
  C:1299H         LINE#         108
  C:1299H         LINE#         109
  C:12A7H         LINE#         110
  C:12AAH         LINE#         111
  C:12AAH         LINE#         112
  C:12C3H         LINE#         114
  C:12C6H         LINE#         115
  C:12C6H         LINE#         118
  C:12D1H         LINE#         119
  C:12D1H         LINE#         120
  C:12D5H         LINE#         121
  C:12D7H         LINE#         122
  C:12D9H         LINE#         123
  C:12DBH         LINE#         124
  C:12DDH         LINE#         126
  C:130FH         LINE#         127
  C:1342H         LINE#         129
  C:135DH         LINE#         130
  C:135DH         LINE#         131
BL51 BANKED LINKER/LOCATER V6.22.4.0                                                  12/30/2023  11:55:39  PAGE 21


  C:1366H         LINE#         132
  C:1369H         LINE#         133
  C:1380H         LINE#         134
  C:139DH         LINE#         135
  C:13BFH         LINE#         136
  C:13C2H         LINE#         137
  C:13C5H         LINE#         138
  C:13C8H         LINE#         139
  C:13DDH         LINE#         140
  C:13E6H         LINE#         141
  C:13E9H         LINE#         142
  C:13ECH         LINE#         143
  C:13EEH         LINE#         144
  C:13F1H         LINE#         145
  C:140DH         LINE#         147
  C:1410H         LINE#         148
  C:1410H         LINE#         240
  C:1412H         LINE#         241
  -------         ENDPROC       _UART_CONFIGURATION
  -------         PROC          _TX1_WRITE2BUFF
  D:0007H         SYMBOL        dat
  C:341BH         LINE#         247
  C:341BH         LINE#         248
  C:341BH         LINE#         260
  C:341DH         LINE#         261
  C:3423H         LINE#         262
  C:3429H         LINE#         264
  -------         ENDPROC       _TX1_WRITE2BUFF
  -------         PROC          _PRINTSTRING1
  D:0001H         SYMBOL        puts
  C:337EH         LINE#         266
  C:337EH         LINE#         267
  C:337EH         LINE#         268
  C:3390H         LINE#         269
  -------         ENDPROC       _PRINTSTRING1
  -------         PROC          _TX2_WRITE2BUFF
  D:0007H         SYMBOL        dat
  C:342AH         LINE#         275
  C:342AH         LINE#         276
  C:342AH         LINE#         288
  C:342CH         LINE#         289
  C:3432H         LINE#         290
  C:3438H         LINE#         292
  -------         ENDPROC       _TX2_WRITE2BUFF
  -------         PROC          _PRINTSTRING2
  D:0001H         SYMBOL        puts
  C:3391H         LINE#         294
  C:3391H         LINE#         295
  C:3391H         LINE#         296
  C:33A3H         LINE#         297
  -------         ENDPROC       _PRINTSTRING2
  -------         PROC          _PUTCHAR
  D:0006H         SYMBOL        c
  C:34B0H         LINE#         376
  C:34B2H         LINE#         377
  C:34B2H         LINE#         378
  -------         ENDPROC       _PUTCHAR
BL51 BANKED LINKER/LOCATER V6.22.4.0                                                  12/30/2023  11:55:39  PAGE 22


  -------         PROC          _NVIC_UART1_INIT
  D:0007H         SYMBOL        State
  D:0005H         SYMBOL        Priority
  C:318BH         LINE#         418
  C:318BH         LINE#         419
  C:318BH         LINE#         420
  C:3194H         LINE#         421
  C:319DH         LINE#         422
  C:31A6H         LINE#         423
  C:31C9H         LINE#         424
  C:31CBH         LINE#         425
  -------         ENDPROC       _NVIC_UART1_INIT
  -------         PROC          _NVIC_UART2_INIT
  D:0007H         SYMBOL        State
  D:0005H         SYMBOL        Priority
  C:3105H         LINE#         438
  C:3105H         LINE#         439
  C:3105H         LINE#         440
  C:310EH         LINE#         441
  C:3117H         LINE#         442
  C:311EH         LINE#         443
  C:3145H         LINE#         444
  C:3147H         LINE#         445
  -------         ENDPROC       _NVIC_UART2_INIT
  -------         PROC          UART1_ISR_HANDLER
  C:302EH         LINE#         497
  C:303BH         LINE#         499
  C:303EH         LINE#         500
  C:303EH         LINE#         501
  C:3040H         LINE#         503
  C:304BH         LINE#         504
  C:305FH         LINE#         505
  C:3065H         LINE#         506
  C:3065H         LINE#         508
  C:3068H         LINE#         509
  C:3068H         LINE#         510
  C:306AH         LINE#         520
  C:306FH         LINE#         522
  C:306FH         LINE#         523
  -------         ENDPROC       UART1_ISR_HANDLER
  -------         PROC          UART2_ISR_HANDLER
  C:2E9DH         LINE#         534
  C:2EAAH         LINE#         536
  C:2EAFH         LINE#         537
  C:2EAFH         LINE#         538
  C:2EB2H         LINE#         541
  C:2EBDH         LINE#         542
  C:2ED1H         LINE#         543
  C:2ED7H         LINE#         544
  C:2ED7H         LINE#         546
  C:2EDCH         LINE#         547
  C:2EDCH         LINE#         548
  C:2EDFH         LINE#         558
  C:2EE4H         LINE#         560
  C:2EE4H         LINE#         561
  -------         ENDPROC       UART2_ISR_HANDLER
  -------         ENDMOD        UART
BL51 BANKED LINKER/LOCATER V6.22.4.0                                                  12/30/2023  11:55:39  PAGE 23



  -------         MODULE        DELAY
  C:0000H         SYMBOL        _ICE_DUMMY_
  D:0080H         PUBLIC        P0
  D:0090H         PUBLIC        P1
  D:00A0H         PUBLIC        P2
  D:00B0H         PUBLIC        P3
  D:00C0H         PUBLIC        P4
  D:00C8H         PUBLIC        P5
  D:00E8H         PUBLIC        P6
  D:00F8H         PUBLIC        P7
  D:00A8H         PUBLIC        IE
  D:00B8H         PUBLIC        IP
  D:0098H         PUBLIC        SCON
  D:0088H         PUBLIC        TCON
  C:33EBH         PUBLIC        _delay_ms
  D:00D0H         PUBLIC        PSW
  -------         PROC          _DELAY_MS
  D:0007H         SYMBOL        ms
  -------         DO            
  D:0004H         SYMBOL        i
  -------         ENDDO         
  C:33EBH         LINE#         24
  C:33EBH         LINE#         25
  C:33EBH         LINE#         27
  C:33EBH         LINE#         28
  C:33EFH         LINE#         29
  C:33F8H         LINE#         30
  C:33FAH         LINE#         31
  -------         ENDPROC       _DELAY_MS
  -------         ENDMOD        DELAY

  -------         MODULE        GPIO
  C:0000H         SYMBOL        _ICE_DUMMY_
  D:0093H         PUBLIC        P0M1
  D:0092H         PUBLIC        P1M0
  D:0096H         PUBLIC        P2M0
  D:0091H         PUBLIC        P1M1
  D:0080H         PUBLIC        P0
  D:00B2H         PUBLIC        P3M0
  D:0095H         PUBLIC        P2M1
  D:0090H         PUBLIC        P1
  D:00B4H         PUBLIC        P4M0
  D:00B1H         PUBLIC        P3M1
  D:00A0H         PUBLIC        P2
  D:00CAH         PUBLIC        P5M0
  D:00B3H         PUBLIC        P4M1
  D:00B0H         PUBLIC        P3
  D:00CCH         PUBLIC        P6M0
  D:00C9H         PUBLIC        P5M1
  D:00C0H         PUBLIC        P4
  D:00E2H         PUBLIC        P7M0
  D:00CBH         PUBLIC        P6M1
  D:00C8H         PUBLIC        P5
  D:00E8H         PUBLIC        P6
  D:00E1H         PUBLIC        P7M1
  D:00F8H         PUBLIC        P7
BL51 BANKED LINKER/LOCATER V6.22.4.0                                                  12/30/2023  11:55:39  PAGE 24


  D:00A8H         PUBLIC        IE
  D:00B8H         PUBLIC        IP
  D:0098H         PUBLIC        SCON
  D:0088H         PUBLIC        TCON
  C:1C1DH         PUBLIC        _GPIO_Inilize
  D:00D0H         PUBLIC        PSW
  D:0094H         PUBLIC        P0M0
  -------         PROC          _GPIO_INILIZE
  D:0007H         SYMBOL        GPIO
  D:0001H         SYMBOL        GPIOx
  C:1C1DH         LINE#         22
  C:1C1DH         LINE#         23
  C:1C1DH         LINE#         24
  C:1C26H         LINE#         25
  C:1C32H         LINE#         26
  C:1C35H         LINE#         27
  C:1C35H         LINE#         28
  C:1C43H         LINE#         29
  C:1C54H         LINE#         30
  C:1C65H         LINE#         31
  C:1C76H         LINE#         32
  C:1C76H         LINE#         33
  C:1C7BH         LINE#         34
  C:1C7BH         LINE#         35
  C:1C8CH         LINE#         36
  C:1C9BH         LINE#         37
  C:1CABH         LINE#         38
  C:1CBEH         LINE#         39
  C:1CBEH         LINE#         40
  C:1CC3H         LINE#         41
  C:1CC3H         LINE#         42
  C:1CD4H         LINE#         43
  C:1CE3H         LINE#         44
  C:1CF3H         LINE#         45
  C:1D06H         LINE#         46
  C:1D06H         LINE#         47
  C:1D0BH         LINE#         48
  C:1D0BH         LINE#         49
  C:1D1CH         LINE#         50
  C:1D2BH         LINE#         51
  C:1D3BH         LINE#         52
  C:1D4EH         LINE#         53
  C:1D4EH         LINE#         54
  C:1D53H         LINE#         55
  C:1D53H         LINE#         56
  C:1D64H         LINE#         57
  C:1D73H         LINE#         58
  C:1D83H         LINE#         59
  C:1D96H         LINE#         60
  C:1D96H         LINE#         61
  C:1D9BH         LINE#         62
  C:1D9BH         LINE#         63
  C:1DACH         LINE#         64
  C:1DBBH         LINE#         65
  C:1DCBH         LINE#         66
  C:1DDEH         LINE#         67
  C:1DDEH         LINE#         68
BL51 BANKED LINKER/LOCATER V6.22.4.0                                                  12/30/2023  11:55:39  PAGE 25


  C:1DE3H         LINE#         69
  C:1DE3H         LINE#         70
  C:1DF4H         LINE#         71
  C:1E03H         LINE#         72
  C:1E13H         LINE#         73
  C:1E26H         LINE#         74
  C:1E26H         LINE#         75
  C:1E2BH         LINE#         76
  C:1E2BH         LINE#         77
  C:1E3CH         LINE#         78
  C:1E4BH         LINE#         79
  C:1E5BH         LINE#         80
  C:1E6EH         LINE#         81
  C:1E6EH         LINE#         82
  C:1E70H         LINE#         83
  -------         ENDPROC       _GPIO_INILIZE
  -------         ENDMOD        GPIO

  -------         MODULE        SOFT_I2C
  C:0000H         SYMBOL        _ICE_DUMMY_
  D:0080H         PUBLIC        P0
  D:0090H         PUBLIC        P1
  D:00A0H         PUBLIC        P2
  C:3498H         PUBLIC        S_ACK
  D:00B0H         PUBLIC        P3
  D:00C0H         PUBLIC        P4
  D:00C8H         PUBLIC        P5
  D:00E8H         PUBLIC        P6
  C:3248H         PUBLIC        _SI2C_WriteNbyte
  D:00F8H         PUBLIC        P7
  D:00A8H         PUBLIC        IE
  C:347EH         PUBLIC        I2C_Delay
  C:3317H         PUBLIC        I2C_ReadAbyte
  D:00B8H         PUBLIC        IP
  C:0026H         PUBLIC        _I2C_WriteAbyte
  C:33CEH         PUBLIC        I2C_Check_ACK
  C:3446H         PUBLIC        I2C_Start
  D:0098H         PUBLIC        SCON
  D:0088H         PUBLIC        TCON
  C:0003H         PUBLIC        S_NoACK
  C:348EH         PUBLIC        I2C_Stop
  B:00B0H.3       PUBLIC        SDA
  B:00B0H.2       PUBLIC        SCL
  B:00D0H.5       PUBLIC        F0
  C:2EEFH         PUBLIC        _SI2C_ReadNbyte
  D:00D0H         PUBLIC        PSW
  C:3477H         SYMBOL        L?0036
  C:3479H         SYMBOL        L?0037
  -------         PROC          L?0035
  -------         ENDPROC       L?0035
  C:3477H         SYMBOL        L?0036
  C:3479H         SYMBOL        L?0037
  -------         PROC          I2C_DELAY
  -------         DO            
  D:0007H         SYMBOL        dly
  -------         ENDDO         
  C:347EH         LINE#         25
BL51 BANKED LINKER/LOCATER V6.22.4.0                                                  12/30/2023  11:55:39  PAGE 26


  C:347EH         LINE#         26
  C:347EH         LINE#         28
  C:3480H         LINE#         29
  C:3482H         LINE#         30
  -------         ENDPROC       I2C_DELAY
  -------         PROC          I2C_START
  C:3446H         LINE#         35
  C:3446H         LINE#         36
  C:3446H         LINE#         37
  C:3446H         LINE#         38
  C:3446H         LINE#         39
  C:3446H         LINE#         40
  C:3449H         LINE#         41
  C:344BH         LINE#         42
  C:344EH         LINE#         43
  C:3450H         LINE#         44
  -------         ENDPROC       I2C_START
  -------         PROC          I2C_STOP
  C:348EH         LINE#         48
  C:348EH         LINE#         49
  C:348EH         LINE#         50
  C:3490H         LINE#         51
  C:3490H         LINE#         52
  C:3490H         LINE#         53
  C:3493H         LINE#         54
  C:3495H         LINE#         55
  -------         ENDPROC       I2C_STOP
  -------         PROC          S_ACK
  C:3498H         LINE#         58
  C:3498H         LINE#         59
  C:3498H         LINE#         60
  C:349AH         LINE#         61
  C:349AH         LINE#         62
  C:349AH         LINE#         63
  C:349DH         LINE#         64
  C:349FH         LINE#         65
  -------         ENDPROC       S_ACK
  -------         PROC          S_NOACK
  C:0003H         LINE#         68
  C:0003H         LINE#         69
  C:0003H         LINE#         70
  C:0003H         LINE#         71
  C:0003H         LINE#         72
  C:0003H         LINE#         73
  C:0006H         LINE#         74
  C:0008H         LINE#         75
  -------         ENDPROC       S_NOACK
  -------         PROC          L?0038
  -------         ENDPROC       L?0038
  -------         PROC          I2C_CHECK_ACK
  C:33CEH         LINE#         78
  C:33CEH         LINE#         79
  C:33CEH         LINE#         80
  C:33CEH         LINE#         81
  C:33CEH         LINE#         82
  C:33CEH         LINE#         83
  C:33D1H         LINE#         84
BL51 BANKED LINKER/LOCATER V6.22.4.0                                                  12/30/2023  11:55:39  PAGE 27


  C:33D5H         LINE#         85
  C:33D7H         LINE#         86
  -------         ENDPROC       I2C_CHECK_ACK
  -------         PROC          _I2C_WRITEABYTE
  D:0006H         SYMBOL        dat
  -------         DO            
  D:0005H         SYMBOL        i
  -------         ENDDO         
  C:0026H         LINE#         96
  C:0028H         LINE#         97
  C:0028H         LINE#         99
  C:002AH         LINE#         101
  C:002AH         LINE#         102
  C:0032H         LINE#         103
  C:0034H         LINE#         104
  C:0038H         LINE#         105
  C:0038H         LINE#         106
  C:0038H         LINE#         107
  C:003BH         LINE#         108
  C:003DH         LINE#         109
  C:0040H         LINE#         110
  C:0040H         LINE#         111
  C:0042H         LINE#         112
  -------         ENDPROC       _I2C_WRITEABYTE
  -------         PROC          I2C_READABYTE
  -------         DO            
  D:0005H         SYMBOL        i
  D:0006H         SYMBOL        dat
  -------         ENDDO         
  C:3317H         LINE#         121
  C:3317H         LINE#         122
  C:3317H         LINE#         124
  C:3319H         LINE#         125
  C:331BH         LINE#         127
  C:331BH         LINE#         128
  C:331DH         LINE#         129
  C:3320H         LINE#         130
  C:3324H         LINE#         131
  C:3328H         LINE#         132
  C:332AH         LINE#         133
  C:332DH         LINE#         134
  C:332DH         LINE#         135
  C:332FH         LINE#         136
  C:3331H         LINE#         137
  -------         ENDPROC       I2C_READABYTE
  -------         PROC          _SI2C_WRITENBYTE
  D:0006H         SYMBOL        dev_addr
  D:0004H         SYMBOL        mem_addr
  D:0001H         SYMBOL        p
  X:032AH         SYMBOL        number
  C:3248H         LINE#         146
  C:324CH         LINE#         147
  C:324CH         LINE#         148
  C:324FH         LINE#         149
  C:3254H         LINE#         150
  C:3257H         LINE#         151
  C:325AH         LINE#         152
BL51 BANKED LINKER/LOCATER V6.22.4.0                                                  12/30/2023  11:55:39  PAGE 28


  C:325AH         LINE#         153
  C:325AH         LINE#         154
  C:325DH         LINE#         155
  C:3260H         LINE#         156
  C:3260H         LINE#         158
  C:3260H         LINE#         159
  C:326EH         LINE#         160
  C:3271H         LINE#         161
  C:3274H         LINE#         162
  C:3274H         LINE#         163
  C:327CH         LINE#         164
  C:327CH         LINE#         165
  C:327CH         LINE#         166
  -------         ENDPROC       _SI2C_WRITENBYTE
  -------         PROC          _SI2C_READNBYTE
  D:0004H         SYMBOL        dev_addr
  X:031CH         SYMBOL        mem_addr
  D:0001H         SYMBOL        p
  X:0320H         SYMBOL        number
  C:2EEFH         LINE#         176
  C:2EF6H         LINE#         177
  C:2EF6H         LINE#         178
  C:2EF9H         LINE#         179
  C:2EF9H         LINE#         180
  C:2EFCH         LINE#         181
  C:2EFFH         LINE#         182
  C:2EFFH         LINE#         183
  C:2F04H         LINE#         184
  C:2F07H         LINE#         185
  C:2F0AH         LINE#         186
  C:2F0AH         LINE#         187
  C:2F0DH         LINE#         188
  C:2F14H         LINE#         189
  C:2F17H         LINE#         190
  C:2F1AH         LINE#         191
  C:2F1AH         LINE#         193
  C:2F1AH         LINE#         194
  C:2F28H         LINE#         195
  C:2F33H         LINE#         196
  C:2F33H         LINE#         197
  C:2F3BH         LINE#         198
  C:2F3EH         LINE#         199
  C:2F3EH         LINE#         200
  C:2F3EH         LINE#         201
  C:2F3EH         LINE#         202
  -------         ENDPROC       _SI2C_READNBYTE
  -------         ENDMOD        SOFT_I2C

  -------         MODULE        STC8H_PWM
  C:0000H         SYMBOL        _ICE_DUMMY_
  D:0080H         PUBLIC        P0
  D:0090H         PUBLIC        P1
  D:00A0H         PUBLIC        P2
  D:00B0H         PUBLIC        P3
  D:00C0H         PUBLIC        P4
  D:00C8H         PUBLIC        P5
  D:00E8H         PUBLIC        P6
BL51 BANKED LINKER/LOCATER V6.22.4.0                                                  12/30/2023  11:55:39  PAGE 29


  D:00F8H         PUBLIC        P7
  D:00A8H         PUBLIC        IE
  D:00B6H         PUBLIC        IP2H
  D:00B8H         PUBLIC        IP
  C:21EBH         PUBLIC        _UpdatePwm
  D:0098H         PUBLIC        SCON
  D:0088H         PUBLIC        TCON
  C:0CD6H         PUBLIC        _PWM_Configuration
  D:00B5H         PUBLIC        IP2
  D:00D0H         PUBLIC        PSW
  C:2CF7H         PUBLIC        _NVIC_PWM_Init
  -------         PROC          _PWM_CONFIGURATION
  D:0005H         SYMBOL        PWM
  D:0001H         SYMBOL        PWMx
  C:0CD6H         LINE#         22
  C:0CD8H         LINE#         23
  C:0CD8H         LINE#         24
  C:0CDDH         LINE#         25
  C:0CDDH         LINE#         26
  C:0CE4H         LINE#         27
  C:0CE8H         LINE#         28
  C:0CEFH         LINE#         29
  C:0CFBH         LINE#         31
  C:0D08H         LINE#         32
  C:0D08H         LINE#         33
  C:0D0CH         LINE#         34
  C:0D13H         LINE#         35
  C:0D15H         LINE#         37
  C:0D15H         LINE#         38
  C:0D19H         LINE#         39
  C:0D20H         LINE#         40
  C:0D20H         LINE#         41
  C:0D27H         LINE#         42
  C:0D27H         LINE#         43
  C:0D2BH         LINE#         44
  C:0D32H         LINE#         45
  C:0D34H         LINE#         47
  C:0D34H         LINE#         48
  C:0D38H         LINE#         49
  C:0D3FH         LINE#         50
  C:0D3FH         LINE#         52
  C:0D54H         LINE#         54
  C:0D57H         LINE#         55
  C:0D57H         LINE#         57
  C:0D5CH         LINE#         58
  C:0D5CH         LINE#         59
  C:0D63H         LINE#         60
  C:0D67H         LINE#         61
  C:0D6EH         LINE#         62
  C:0D7AH         LINE#         64
  C:0D87H         LINE#         65
  C:0D87H         LINE#         66
  C:0D8BH         LINE#         67
  C:0D92H         LINE#         68
  C:0D94H         LINE#         70
  C:0D94H         LINE#         71
  C:0D98H         LINE#         72
BL51 BANKED LINKER/LOCATER V6.22.4.0                                                  12/30/2023  11:55:39  PAGE 30


  C:0D9FH         LINE#         73
  C:0D9FH         LINE#         74
  C:0DA6H         LINE#         75
  C:0DA6H         LINE#         76
  C:0DAAH         LINE#         77
  C:0DB1H         LINE#         78
  C:0DB3H         LINE#         80
  C:0DB3H         LINE#         81
  C:0DB7H         LINE#         82
  C:0DBEH         LINE#         83
  C:0DBEH         LINE#         85
  C:0DD3H         LINE#         87
  C:0DD6H         LINE#         88
  C:0DD6H         LINE#         90
  C:0DDBH         LINE#         91
  C:0DDBH         LINE#         92
  C:0DE2H         LINE#         93
  C:0DE6H         LINE#         94
  C:0DEDH         LINE#         95
  C:0DF9H         LINE#         97
  C:0E06H         LINE#         98
  C:0E06H         LINE#         99
  C:0E0AH         LINE#         100
  C:0E11H         LINE#         101
  C:0E13H         LINE#         103
  C:0E13H         LINE#         104
  C:0E17H         LINE#         105
  C:0E1EH         LINE#         106
  C:0E1EH         LINE#         107
  C:0E25H         LINE#         108
  C:0E25H         LINE#         109
  C:0E29H         LINE#         110
  C:0E30H         LINE#         111
  C:0E32H         LINE#         113
  C:0E32H         LINE#         114
  C:0E36H         LINE#         115
  C:0E3DH         LINE#         116
  C:0E3DH         LINE#         118
  C:0E52H         LINE#         120
  C:0E55H         LINE#         121
  C:0E55H         LINE#         123
  C:0E5AH         LINE#         124
  C:0E5AH         LINE#         125
  C:0E61H         LINE#         126
  C:0E65H         LINE#         127
  C:0E6CH         LINE#         128
  C:0E78H         LINE#         130
  C:0E85H         LINE#         131
  C:0E85H         LINE#         132
  C:0E89H         LINE#         133
  C:0E90H         LINE#         134
  C:0E92H         LINE#         136
  C:0E92H         LINE#         137
  C:0E96H         LINE#         138
  C:0E9DH         LINE#         139
  C:0E9DH         LINE#         140
  C:0EA4H         LINE#         141
BL51 BANKED LINKER/LOCATER V6.22.4.0                                                  12/30/2023  11:55:39  PAGE 31


  C:0EA4H         LINE#         142
  C:0EA8H         LINE#         143
  C:0EAFH         LINE#         144
  C:0EB1H         LINE#         146
  C:0EB1H         LINE#         147
  C:0EB5H         LINE#         148
  C:0EBCH         LINE#         149
  C:0EBCH         LINE#         151
  C:0ED1H         LINE#         153
  C:0ED4H         LINE#         154
  C:0ED4H         LINE#         156
  C:0ED9H         LINE#         157
  C:0ED9H         LINE#         163
  C:0EE3H         LINE#         164
  C:0EF9H         LINE#         165
  C:0F0FH         LINE#         166
  C:0F25H         LINE#         168
  C:0F28H         LINE#         169
  C:0F28H         LINE#         171
  C:0F2DH         LINE#         172
  C:0F2DH         LINE#         173
  C:0F34H         LINE#         174
  C:0F3BH         LINE#         175
  C:0F47H         LINE#         177
  C:0F53H         LINE#         178
  C:0F53H         LINE#         179
  C:0F57H         LINE#         180
  C:0F5EH         LINE#         181
  C:0F60H         LINE#         183
  C:0F60H         LINE#         184
  C:0F64H         LINE#         185
  C:0F6BH         LINE#         186
  C:0F6BH         LINE#         188
  C:0F80H         LINE#         190
  C:0F83H         LINE#         191
  C:0F83H         LINE#         193
  C:0F88H         LINE#         194
  C:0F88H         LINE#         195
  C:0F8FH         LINE#         196
  C:0F96H         LINE#         197
  C:0FA2H         LINE#         199
  C:0FAEH         LINE#         200
  C:0FAEH         LINE#         201
  C:0FB2H         LINE#         202
  C:0FB9H         LINE#         203
  C:0FBBH         LINE#         205
  C:0FBBH         LINE#         206
  C:0FBFH         LINE#         207
  C:0FC6H         LINE#         208
  C:0FC6H         LINE#         210
  C:0FDBH         LINE#         212
  C:0FDEH         LINE#         213
  C:0FDEH         LINE#         215
  C:0FE3H         LINE#         216
  C:0FE3H         LINE#         217
  C:0FEAH         LINE#         218
  C:0FF1H         LINE#         219
BL51 BANKED LINKER/LOCATER V6.22.4.0                                                  12/30/2023  11:55:39  PAGE 32


  C:0FFDH         LINE#         221
  C:1009H         LINE#         222
  C:1009H         LINE#         223
  C:100DH         LINE#         224
  C:1014H         LINE#         225
  C:1016H         LINE#         227
  C:1016H         LINE#         228
  C:101AH         LINE#         229
  C:1021H         LINE#         230
  C:1021H         LINE#         232
  C:1036H         LINE#         234
  C:1038H         LINE#         235
  C:1038H         LINE#         237
  C:103DH         LINE#         238
  C:103DH         LINE#         239
  C:1044H         LINE#         240
  C:104BH         LINE#         241
  C:1057H         LINE#         243
  C:1063H         LINE#         244
  C:1063H         LINE#         245
  C:1067H         LINE#         246
  C:106EH         LINE#         247
  C:1070H         LINE#         249
  C:1070H         LINE#         250
  C:1074H         LINE#         251
  C:107BH         LINE#         252
  C:107BH         LINE#         254
  C:1091H         LINE#         256
  C:1094H         LINE#         257
  C:1094H         LINE#         259
  C:1099H         LINE#         260
  C:1099H         LINE#         266
  C:10A3H         LINE#         267
  C:10B6H         LINE#         268
  C:10CCH         LINE#         269
  C:10E2H         LINE#         271
  C:10E5H         LINE#         272
  C:10E5H         LINE#         274
  C:10E7H         LINE#         275
  -------         ENDPROC       _PWM_CONFIGURATION
  -------         PROC          _NVIC_PWM_INIT
  D:0007H         SYMBOL        Channel
  D:0005H         SYMBOL        State
  D:0003H         SYMBOL        Priority
  C:2CF7H         LINE#         286
  C:2CF7H         LINE#         287
  C:2CF7H         LINE#         288
  C:2D00H         LINE#         289
  C:2D09H         LINE#         290
  C:2D11H         LINE#         291
  C:2D11H         LINE#         292
  C:2D11H         LINE#         293
  C:2D16H         LINE#         294
  C:2D3EH         LINE#         295
  C:2D40H         LINE#         297
  C:2D40H         LINE#         298
  C:2D45H         LINE#         299
BL51 BANKED LINKER/LOCATER V6.22.4.0                                                  12/30/2023  11:55:39  PAGE 33


  C:2D6CH         LINE#         300
  C:2D6EH         LINE#         302
  C:2D6EH         LINE#         303
  C:2D73H         LINE#         304
  C:2D73H         LINE#         305
  C:2D73H         LINE#         306
  C:2D73H         LINE#         307
  C:2D75H         LINE#         308
  -------         ENDPROC       _NVIC_PWM_INIT
  -------         PROC          _UPDATEPWM
  D:0007H         SYMBOL        PWM
  D:0001H         SYMBOL        PWMx
  C:21EBH         LINE#         317
  C:21EBH         LINE#         318
  C:21EBH         LINE#         319
  C:2229H         LINE#         320
  C:2229H         LINE#         321
  C:2229H         LINE#         322
  C:2233H         LINE#         323
  C:2236H         LINE#         325
  C:2236H         LINE#         326
  C:2243H         LINE#         327
  C:2246H         LINE#         329
  C:2246H         LINE#         330
  C:2253H         LINE#         331
  C:2256H         LINE#         333
  C:2256H         LINE#         334
  C:2263H         LINE#         335
  C:2266H         LINE#         337
  C:2266H         LINE#         338
  C:2273H         LINE#         339
  C:2276H         LINE#         341
  C:2276H         LINE#         342
  C:2283H         LINE#         343
  C:2286H         LINE#         345
  C:2286H         LINE#         346
  C:2293H         LINE#         347
  C:2296H         LINE#         349
  C:2296H         LINE#         350
  C:22A3H         LINE#         351
  C:22A6H         LINE#         353
  C:22A6H         LINE#         354
  C:22B6H         LINE#         355
  C:22C9H         LINE#         356
  C:22DCH         LINE#         357
  C:22E9H         LINE#         358
  C:22EBH         LINE#         360
  C:22EBH         LINE#         361
  C:22FEH         LINE#         362
  C:2311H         LINE#         363
  C:2324H         LINE#         364
  C:2337H         LINE#         365
  C:2337H         LINE#         366
  C:2337H         LINE#         367
  -------         ENDPROC       _UPDATEPWM
  -------         ENDMOD        STC8H_PWM

BL51 BANKED LINKER/LOCATER V6.22.4.0                                                  12/30/2023  11:55:39  PAGE 34


  -------         MODULE        PCA9685_SERVO
  C:0000H         SYMBOL        _ICE_DUMMY_
  D:0080H         PUBLIC        P0
  D:0090H         PUBLIC        P1
  D:00A0H         PUBLIC        P2
  D:00B0H         PUBLIC        P3
  D:00C0H         PUBLIC        P4
  D:00C8H         PUBLIC        P5
  D:00E8H         PUBLIC        P6
  D:00F8H         PUBLIC        P7
  C:299CH         PUBLIC        _PCA9685_setPin
  C:3367H         SYMBOL        GPIO_config
  D:00A8H         PUBLIC        IE
  D:00B8H         PUBLIC        IP
  C:3483H         PUBLIC        _floor
  C:2FE0H         PUBLIC        _setServoDegree
  D:0098H         PUBLIC        SCON
  D:0088H         PUBLIC        TCON
  C:33FBH         PUBLIC        PCA9685_reset
  C:340BH         PUBLIC        _rdSensorReg8_8
  C:33DAH         PUBLIC        PCA9685_init
  C:2E47H         PUBLIC        _PCA9685_setPWM
  C:3332H         PUBLIC        _wrSensorReg8_8
  C:2775H         PUBLIC        _PCA9685_setPWMFreq
  C:2846H         PUBLIC        _setServoPulse
  D:00D0H         PUBLIC        PSW
  -------         PROC          _FLOOR
  D:0004H         SYMBOL        x
  -------         DO            
  D:0006H         SYMBOL        integerPart
  -------         ENDDO         
  C:3483H         LINE#         7
  C:3483H         LINE#         8
  C:3486H         LINE#         9
  -------         ENDPROC       _FLOOR
  -------         PROC          GPIO_CONFIG
  -------         DO            
  X:0311H         SYMBOL        GPIO_InitStructure
  -------         ENDDO         
  C:3367H         LINE#         11
  C:3367H         LINE#         13
  C:336DH         LINE#         14
  C:3373H         LINE#         15
  -------         ENDPROC       GPIO_CONFIG
  -------         PROC          PCA9685_INIT
  C:33DAH         LINE#         38
  C:33DAH         LINE#         40
  C:33DDH         LINE#         43
  C:33E0H         LINE#         45
  -------         ENDPROC       PCA9685_INIT
  -------         PROC          PCA9685_RESET
  C:33FBH         LINE#         54
  C:33FBH         LINE#         55
  C:3400H         LINE#         57
  C:3406H         LINE#         58
  -------         ENDPROC       PCA9685_RESET
  -------         PROC          _PCA9685_SETPWMFREQ
BL51 BANKED LINKER/LOCATER V6.22.4.0                                                  12/30/2023  11:55:39  PAGE 35


  X:0311H         SYMBOL        freq
  -------         DO            
  X:0315H         SYMBOL        oldmode
  D:0007H         SYMBOL        newmode
  X:0316H         SYMBOL        prescale
  X:0317H         SYMBOL        prescaleval
  -------         ENDDO         
  C:2775H         LINE#         67
  C:277BH         LINE#         72
  C:2785H         LINE#         75
  C:27A3H         LINE#         76
  C:27C8H         LINE#         77
  C:27E6H         LINE#         78
  C:2808H         LINE#         80
  C:2813H         LINE#         81
  C:281BH         LINE#         82
  C:2821H         LINE#         83
  C:282BH         LINE#         85
  C:2835H         LINE#         87
  C:283AH         LINE#         89
  -------         ENDPROC       _PCA9685_SETPWMFREQ
  -------         PROC          _PCA9685_SETPWM
  X:031FH         SYMBOL        num
  X:0320H         SYMBOL        on
  X:0322H         SYMBOL        off
  C:2E47H         LINE#         100
  C:2E5AH         LINE#         101
  C:2E65H         LINE#         102
  C:2E76H         LINE#         103
  C:2E8AH         LINE#         104
  -------         ENDPROC       _PCA9685_SETPWM
  -------         PROC          _PCA9685_SETPIN
  X:0368H         SYMBOL        num
  X:0369H         SYMBOL        val
  D:0003H         SYMBOL        invert
  C:299CH         LINE#         115
  C:29A7H         LINE#         116
  C:29A7H         LINE#         119
  C:29C7H         LINE#         120
  C:29CAH         LINE#         121
  C:29D4H         LINE#         123
  C:29D4H         LINE#         124
  C:29D6H         LINE#         125
  C:29E2H         LINE#         127
  C:29EBH         LINE#         128
  C:29EDH         LINE#         129
  C:29EDH         LINE#         130
  C:2A01H         LINE#         131
  C:2A01H         LINE#         132
  C:2A03H         LINE#         133
  C:2A03H         LINE#         134
  C:2A0FH         LINE#         136
  C:2A1AH         LINE#         137
  C:2A1CH         LINE#         138
  C:2A29H         LINE#         140
  C:2A2FH         LINE#         141
  C:2A31H         LINE#         142
BL51 BANKED LINKER/LOCATER V6.22.4.0                                                  12/30/2023  11:55:39  PAGE 36


  C:2A31H         LINE#         143
  C:2A3FH         LINE#         144
  C:2A3FH         LINE#         145
  C:2A3FH         LINE#         146
  -------         ENDPROC       _PCA9685_SETPIN
  -------         PROC          _SETSERVOPULSE
  X:0316H         SYMBOL        n
  X:0317H         SYMBOL        pulse
  -------         DO            
  X:031BH         SYMBOL        pulselength
  -------         ENDDO         
  C:2846H         LINE#         154
  C:284BH         LINE#         157
  C:2855H         LINE#         158
  C:2873H         LINE#         159
  C:2891H         LINE#         160
  C:28AFH         LINE#         161
  C:28D2H         LINE#         162
  -------         ENDPROC       _SETSERVOPULSE
  -------         PROC          _SETSERVODEGREE
  X:0311H         SYMBOL        n
  D:0005H         SYMBOL        Degree
  -------         DO            
  X:0312H         SYMBOL        pulse
  -------         ENDDO         
  C:2FE0H         LINE#         171
  C:2FE5H         LINE#         173
  C:2FEBH         LINE#         174
  C:2FEDH         LINE#         175
  C:2FEFH         LINE#         176
  C:2FF5H         LINE#         177
  C:2FF7H         LINE#         178
  C:2FF7H         LINE#         179
  C:3012H         LINE#         180
  -------         ENDPROC       _SETSERVODEGREE
  -------         PROC          _WRSENSORREG8_8
  D:0007H         SYMBOL        regID
  X:0324H         SYMBOL        regDat
  C:3332H         LINE#         191
  C:3337H         LINE#         192
  C:3337H         LINE#         193
  C:334AH         LINE#         194
  C:334CH         LINE#         195
  -------         ENDPROC       _WRSENSORREG8_8
  -------         PROC          _RDSENSORREG8_8
  D:0007H         SYMBOL        regID
  D:0001H         SYMBOL        regDat
  C:340BH         LINE#         204
  C:340BH         LINE#         205
  C:340BH         LINE#         206
  C:3418H         LINE#         207
  C:341AH         LINE#         208
  -------         ENDPROC       _RDSENSORREG8_8
  -------         ENDMOD        PCA9685_SERVO

  -------         MODULE        BUZZER
  C:0000H         SYMBOL        _ICE_DUMMY_
BL51 BANKED LINKER/LOCATER V6.22.4.0                                                  12/30/2023  11:55:39  PAGE 37


  D:0080H         PUBLIC        P0
  D:0090H         PUBLIC        P1
  D:00A0H         PUBLIC        P2
  D:00B0H         PUBLIC        P3
  D:00C0H         PUBLIC        P4
  D:00C8H         PUBLIC        P5
  D:00E8H         PUBLIC        P6
  D:00F8H         PUBLIC        P7
  C:2BEDH         PUBLIC        _BUZZER_work
  D:00BAH         PUBLIC        P_SW2
  C:000EH         PUBLIC        BUZZER_stop
  D:00A8H         PUBLIC        IE
  D:00B8H         PUBLIC        IP
  D:0098H         PUBLIC        SCON
  D:0088H         PUBLIC        TCON
  C:3148H         PUBLIC        BUZZER_config
  D:00D0H         PUBLIC        PSW
  C:34AAH         PUBLIC        BUZZER_init
  -------         PROC          BUZZER_CONFIG
  -------         DO            
  X:0311H         SYMBOL        GPIO_InitStructure
  -------         ENDDO         
  C:3148H         LINE#         3
  C:3148H         LINE#         5
  C:314EH         LINE#         6
  C:3154H         LINE#         7
  C:315FH         LINE#         8
  C:3165H         LINE#         9
  C:316AH         LINE#         10
  C:3175H         LINE#         11
  C:317BH         LINE#         12
  C:3180H         LINE#         13
  -------         ENDPROC       BUZZER_CONFIG
  -------         PROC          BUZZER_INIT
  C:34AAH         LINE#         16
  C:34AAH         LINE#         17
  C:34ADH         LINE#         18
  -------         ENDPROC       BUZZER_INIT
  -------         PROC          _BUZZER_WORK
  D:0006H         SYMBOL        hz_value
  -------         DO            
  X:0225H         SYMBOL        PWMx_InitStructure
  X:022EH         SYMBOL        Period
  -------         ENDDO         
  C:2BEDH         LINE#         20
  C:2BEDH         LINE#         23
  C:2C06H         LINE#         26
  C:2C0CH         LINE#         27
  C:2C28H         LINE#         28
  C:2C2EH         LINE#         29
  C:2C38H         LINE#         32
  C:2C4CH         LINE#         33
  C:2C51H         LINE#         34
  C:2C56H         LINE#         35
  C:2C5AH         LINE#         36
  C:2C64H         LINE#         39
  C:2C6DH         LINE#         42
BL51 BANKED LINKER/LOCATER V6.22.4.0                                                  12/30/2023  11:55:39  PAGE 38


  -------         ENDPROC       _BUZZER_WORK
  -------         PROC          BUZZER_STOP
  -------         DO            
  X:0225H         SYMBOL        PWMx_InitStructure
  -------         ENDDO         
  C:000EH         LINE#         46
  C:000EH         LINE#         48
  C:0013H         LINE#         49
  C:0017H         LINE#         50
  -------         ENDPROC       BUZZER_STOP
  -------         ENDMOD        BUZZER

  -------         MODULE        ULTRASONIC
  C:0000H         SYMBOL        _ICE_DUMMY_
  D:0080H         PUBLIC        P0
  D:0090H         PUBLIC        P1
  D:00A0H         PUBLIC        P2
  D:00B0H         PUBLIC        P3
  D:00C0H         PUBLIC        P4
  D:00C8H         PUBLIC        P5
  D:00E8H         PUBLIC        P6
  D:00F8H         PUBLIC        P7
  D:00A8H         PUBLIC        IE
  D:00B8H         PUBLIC        IP
  C:2AD2H         PUBLIC        _Ultrasonic_value
  B:00C0H.0       PUBLIC        P40
  D:0098H         PUBLIC        SCON
  B:0090H.3       PUBLIC        P13
  D:0088H         PUBLIC        TCON
  C:34B5H         PUBLIC        Delay10us
  C:32B0H         PUBLIC        Ultrasonic_init
  D:00D0H         PUBLIC        PSW
  -------         PROC          ULTRASONIC_INIT
  -------         DO            
  X:0311H         SYMBOL        GPIO_InitStructure
  -------         ENDDO         
  C:32B0H         LINE#         2
  C:32B0H         LINE#         5
  C:32B6H         LINE#         6
  C:32BCH         LINE#         7
  C:32C7H         LINE#         8
  C:32CDH         LINE#         9
  C:32D1H         LINE#         10
  -------         ENDPROC       ULTRASONIC_INIT
  -------         PROC          DELAY10US
  -------         DO            
  D:0007H         SYMBOL        i
  -------         ENDDO         
  C:34B5H         LINE#         13
  C:34B5H         LINE#         14
  C:34B5H         LINE#         16
  C:34B7H         LINE#         17
  C:34B9H         LINE#         18
  -------         ENDPROC       DELAY10US
  -------         PROC          _ULTRASONIC_VALUE
  X:02B9H         SYMBOL        dis
  -------         DO            
BL51 BANKED LINKER/LOCATER V6.22.4.0                                                  12/30/2023  11:55:39  PAGE 39


  D:0002H         SYMBOL        count
  D:0004H         SYMBOL        distance
  -------         ENDDO         
  C:2AD2H         LINE#         20
  C:2ADDH         LINE#         21
  C:2AE0H         LINE#         26
  C:2AE2H         LINE#         27
  C:2AE4H         LINE#         28
  C:2AE7H         LINE#         29
  C:2AEAH         LINE#         30
  C:2AECH         LINE#         32
  C:2AFAH         LINE#         33
  C:2AFFH         LINE#         34
  C:2B02H         LINE#         35
  C:2B04H         LINE#         37
  C:2B0FH         LINE#         38
  C:2B14H         LINE#         39
  C:2B14H         LINE#         41
  C:2B17H         LINE#         42
  C:2B1AH         LINE#         43
  C:2B1FH         LINE#         44
  C:2B22H         LINE#         45
  C:2B24H         LINE#         46
  C:2B33H         LINE#         47
  C:2B4FH         LINE#         57
  C:2B5DH         LINE#         58
  C:2B60H         LINE#         59
  -------         ENDPROC       _ULTRASONIC_VALUE
  -------         ENDMOD        ULTRASONIC

  -------         MODULE        BLUETOOTH
  C:0000H         SYMBOL        _ICE_DUMMY_
  D:0093H         PUBLIC        P0M1
  D:0092H         PUBLIC        P1M0
  D:0091H         PUBLIC        P1M1
  D:0080H         PUBLIC        P0
  D:0090H         PUBLIC        P1
  D:00A0H         PUBLIC        P2
  D:00B0H         PUBLIC        P3
  D:00C0H         PUBLIC        P4
  D:00C8H         PUBLIC        P5
  D:00E8H         PUBLIC        P6
  D:00F8H         PUBLIC        P7
  D:00A2H         PUBLIC        P_SW1
  D:00BAH         PUBLIC        P_SW2
  D:00A8H         PUBLIC        IE
  C:2F91H         PUBLIC        Bluetooth_accept
  D:00B8H         PUBLIC        IP
  D:0098H         PUBLIC        SCON
  D:0088H         PUBLIC        TCON
  C:307AH         PUBLIC        Bluetooth_send
  C:2D76H         PUBLIC        Bluetooth_init
  D:00D0H         PUBLIC        PSW
  D:0094H         PUBLIC        P0M0
  -------         PROC          BLUETOOTH_INIT
  -------         DO            
  X:0311H         SYMBOL        COMx_InitStructure
BL51 BANKED LINKER/LOCATER V6.22.4.0                                                  12/30/2023  11:55:39  PAGE 40


  -------         ENDDO         
  C:2D76H         LINE#         3
  C:2D76H         LINE#         7
  C:2D7CH         LINE#         8
  C:2D80H         LINE#         9
  C:2D88H         LINE#         10
  C:2D8EH         LINE#         11
  C:2D91H         LINE#         12
  C:2D9CH         LINE#         13
  C:2DA3H         LINE#         14
  C:2DA6H         LINE#         15
  C:2DACH         LINE#         16
  C:2DB2H         LINE#         18
  C:2DB8H         LINE#         19
  C:2DBCH         LINE#         20
  C:2DC4H         LINE#         21
  C:2DCAH         LINE#         22
  C:2DCDH         LINE#         23
  C:2DD8H         LINE#         25
  C:2DDFH         LINE#         26
  C:2DE2H         LINE#         27
  -------         ENDPROC       BLUETOOTH_INIT
  -------         PROC          BLUETOOTH_SEND
  -------         DO            
  X:02F3H         SYMBOL        i
  -------         ENDDO         
  C:307AH         LINE#         29
  C:307AH         LINE#         31
  C:3088H         LINE#         32
  C:3091H         LINE#         33
  C:30A4H         LINE#         34
  C:30B3H         LINE#         35
  C:30BBH         LINE#         36
  C:30BBH         LINE#         37
  C:30C0H         LINE#         38
  C:30C0H         LINE#         39
  -------         ENDPROC       BLUETOOTH_SEND
  -------         PROC          BLUETOOTH_ACCEPT
  -------         DO            
  X:02F4H         SYMBOL        i
  -------         ENDDO         
  C:2F91H         LINE#         40
  C:2F91H         LINE#         42
  C:2F9FH         LINE#         43
  C:2FA8H         LINE#         44
  C:2FBBH         LINE#         45
  C:2FCAH         LINE#         46
  C:2FD2H         LINE#         47
  C:2FDAH         LINE#         48
  C:2FDAH         LINE#         49
  C:2FDFH         LINE#         50
  C:2FDFH         LINE#         51
  -------         ENDPROC       BLUETOOTH_ACCEPT
  -------         ENDMOD        BLUETOOTH

  -------         MODULE        LED
  C:0000H         SYMBOL        _ICE_DUMMY_
BL51 BANKED LINKER/LOCATER V6.22.4.0                                                  12/30/2023  11:55:39  PAGE 41


  C:33A4H         PUBLIC        LED_stop
  D:0080H         PUBLIC        P0
  D:0090H         PUBLIC        P1
  D:00A0H         PUBLIC        P2
  D:00B0H         PUBLIC        P3
  D:00C0H         PUBLIC        P4
  D:00C8H         PUBLIC        P5
  D:00E8H         PUBLIC        P6
  D:00F8H         PUBLIC        P7
  D:00A8H         PUBLIC        IE
  D:00B8H         PUBLIC        IP
  B:00A0H.0       PUBLIC        P20
  B:00A0H.1       PUBLIC        P21
  B:00A0H.2       PUBLIC        P22
  D:0098H         PUBLIC        SCON
  B:00A0H.3       PUBLIC        P23
  B:0090H.4       PUBLIC        P14
  D:0088H         PUBLIC        TCON
  B:0090H.5       PUBLIC        P15
  B:00B0H.5       PUBLIC        P35
  B:00A0H.6       PUBLIC        P26
  B:00C0H.5       PUBLIC        P45
  B:00A0H.7       PUBLIC        P27
  C:2F41H         PUBLIC        GPIO_Config
  C:34A2H         PUBLIC        LED_init
  C:16F6H         PUBLIC        LED_play
  D:00D0H         PUBLIC        PSW
  -------         PROC          GPIO_CONFIG
  -------         DO            
  X:0311H         SYMBOL        init
  -------         ENDDO         
  C:2F41H         LINE#         17
  C:2F41H         LINE#         21
  C:2F46H         LINE#         22
  C:2F4AH         LINE#         23
  C:2F55H         LINE#         25
  C:2F5AH         LINE#         26
  C:2F5EH         LINE#         27
  C:2F69H         LINE#         29
  C:2F6EH         LINE#         30
  C:2F72H         LINE#         31
  C:2F7DH         LINE#         33
  C:2F82H         LINE#         34
  C:2F86H         LINE#         35
  -------         ENDPROC       GPIO_CONFIG
  -------         PROC          LED_INIT
  C:34A2H         LINE#         38
  C:34A2H         LINE#         39
  C:34A5H         LINE#         40
  C:34A7H         LINE#         41
  C:34A9H         LINE#         42
  -------         ENDPROC       LED_INIT
  -------         PROC          LED_STOP
  C:33A4H         LINE#         43
  C:33A4H         LINE#         44
  C:33A6H         LINE#         45
  C:33B6H         LINE#         46
BL51 BANKED LINKER/LOCATER V6.22.4.0                                                  12/30/2023  11:55:39  PAGE 42


  -------         ENDPROC       LED_STOP
  -------         PROC          LED_PLAY
  -------         DO            
  X:02E9H         SYMBOL        i
  X:02EBH         SYMBOL        j
  X:02EDH         SYMBOL        m
  X:02EFH         SYMBOL        n
  X:02F1H         SYMBOL        b
  -------         ENDDO         
  C:16F6H         LINE#         47
  C:16F6H         LINE#         57
  C:16F6H         LINE#         58
  C:16FDH         LINE#         60
  C:1719H         LINE#         61
  C:1723H         LINE#         62
  C:172FH         LINE#         63
  C:1742H         LINE#         64
  C:174EH         LINE#         65
  C:1761H         LINE#         66
  C:176DH         LINE#         67
  C:1780H         LINE#         68
  C:178CH         LINE#         70
  C:1791H         LINE#         71
  C:17A2H         LINE#         73
  C:17BEH         LINE#         74
  C:17C7H         LINE#         75
  C:17D3H         LINE#         76
  C:17E6H         LINE#         77
  C:17F2H         LINE#         78
  C:1805H         LINE#         79
  C:1811H         LINE#         80
  C:1824H         LINE#         81
  C:1830H         LINE#         83
  C:1835H         LINE#         84
  C:1846H         LINE#         85
  C:1868H         LINE#         87
  C:1883H         LINE#         91
  C:1887H         LINE#         92
  C:188CH         LINE#         93
  C:1890H         LINE#         94
  C:1895H         LINE#         96
  C:1899H         LINE#         97
  C:189EH         LINE#         98
  C:18A2H         LINE#         99
  C:18A7H         LINE#         101
  C:18ABH         LINE#         102
  C:18B0H         LINE#         103
  C:18B4H         LINE#         104
  C:18B9H         LINE#         106
  C:18BDH         LINE#         107
  C:18C2H         LINE#         108
  C:18C6H         LINE#         109
  C:18CBH         LINE#         111
  C:18CFH         LINE#         112
  C:18D4H         LINE#         113
  C:18D8H         LINE#         114
  C:18DDH         LINE#         116
BL51 BANKED LINKER/LOCATER V6.22.4.0                                                  12/30/2023  11:55:39  PAGE 43


  C:18E1H         LINE#         117
  C:18E6H         LINE#         118
  C:18EAH         LINE#         119
  C:18EFH         LINE#         121
  C:18F3H         LINE#         122
  C:18F8H         LINE#         123
  C:18FCH         LINE#         124
  C:1901H         LINE#         126
  C:1905H         LINE#         127
  C:190AH         LINE#         128
  C:190EH         LINE#         129
  C:1913H         LINE#         131
  C:191AH         LINE#         132
  C:192AH         LINE#         133
  C:192FH         LINE#         134
  C:193FH         LINE#         135
  C:1944H         LINE#         137
  C:1963H         LINE#         138
  C:196AH         LINE#         139
  C:197AH         LINE#         140
  C:197FH         LINE#         141
  C:198FH         LINE#         142
  C:1994H         LINE#         143
  C:19B3H         LINE#         150
  -------         ENDPROC       LED_PLAY
  -------         ENDMOD        LED

  -------         MODULE        ?RTX51_TINY_KERNAL
  C:32F9H         SEGMENT       ?RTX?TASKENT?S
  I:0040H         SEGMENT       ?RTX?TASKSP?S
  I:0022H         SEGMENT       ?RTX?TASKSTATE?S
  B:0021H.1       SEGMENT       ?RTX?BITS
  C:1413H         SEGMENT       ?RTX?CODE
  C:15D3H         PUBLIC        ?RTX?SET_ISR
  D:000CH         PUBLIC        ?RTX_CURRENTTASK
  D:0007H         PUBLIC        ?RTX_NEXTID
  C:1616H         PUBLIC        ?RTX_NEXTTASK
  N:00FFH         PUBLIC        ?RTX_RAMTOP
  C:32F9H         PUBLIC        ?RTX_TASKENTRY
  C:16F5H         PUBLIC        ?RTX_TASKIDX
  I:0040H         PUBLIC        ?RTX_TASKSP
  I:0022H         PUBLIC        ?RTX_TASKSTATUS
  C:16B9H         PUBLIC        MAIN
  C:15FFH         PUBLIC        OS_SWITCH_TASK
  C:1608H         SYMBOL        ?C0001
  C:1612H         SYMBOL        ?C0003
  C:1617H         SYMBOL        ?C0005
  C:1631H         SYMBOL        ?C0007
  C:1633H         SYMBOL        ?C0009
  C:163DH         SYMBOL        ?C0011
  C:166AH         SYMBOL        ?C0012
  C:1650H         SYMBOL        ?C0013
  C:1655H         SYMBOL        ?C0015
  C:1660H         SYMBOL        ?C0016
  N:0000H         SYMBOL        ?RTX51_TINY_KERNAL
  N:D8F0H         SYMBOL        ?RTX_CLOCK
  N:0008H         SYMBOL        ?RTX_REGISTERBANK
BL51 BANKED LINKER/LOCATER V6.22.4.0                                                  12/30/2023  11:55:39  PAGE 44


  D:000DH         SYMBOL        ?RTX_ROBINTIME
  D:000AH         SYMBOL        ?RTX_SAVEACC
  D:000BH         SYMBOL        ?RTX_SAVEPSW
  C:1584H         SYMBOL        ?RTX_STACKERROR
  C:15D7H         SYMBOL        ?RTX_TASKSWITCHING
  B:0021H.1       SYMBOL        ?RTX_TS_DELAY
  D:00E0H         SYMBOL        ACC
  D:00F0H         SYMBOL        B
  N:0005H         SYMBOL        B_ACTIVE
  N:0007H         SYMBOL        B_IVL
  N:0007H         SYMBOL        B_RDY
  N:0004H         SYMBOL        B_READY
  N:0006H         SYMBOL        B_ROBIN
  N:0002H         SYMBOL        B_SIGNAL
  N:0003H         SYMBOL        B_TIMEOUT
  N:0000H         SYMBOL        B_WAITSIG
  N:0001H         SYMBOL        B_WAITTIM
  C:15D4H         SYMBOL        CHECKROBINTIME
  C:15AEH         SYMBOL        CHECKSTACK
  N:0000H         SYMBOL        CODE_BANKING
  N:0000H         SYMBOL        CPU_IDLE_CODE
  D:0083H         SYMBOL        DPH
  D:0082H         SYMBOL        DPL
  B:00A8H.7       SYMBOL        EA
  B:00A8H.4       SYMBOL        ES
  B:00A8H.1       SYMBOL        ET0
  B:00A8H.3       SYMBOL        ET1
  B:00A8H.0       SYMBOL        EX0
  B:00A8H.2       SYMBOL        EX1
  N:0014H         SYMBOL        FREE_STACK
  C:1588H         SYMBOL        HW_TIMER
  D:00A8H         SYMBOL        IE
  B:0088H.1       SYMBOL        IE0
  B:0088H.3       SYMBOL        IE1
  N:2710H         SYMBOL        INT_CLOCK
  N:0001H         SYMBOL        INT_REGBANK
  B:0088H.0       SYMBOL        IT0
  B:0088H.2       SYMBOL        IT1
  N:0020H         SYMBOL        K_ACTIVE
  N:0080H         SYMBOL        K_IVL
  N:0080H         SYMBOL        K_RDY
  N:0010H         SYMBOL        K_READY
  N:0040H         SYMBOL        K_ROBIN
  N:0001H         SYMBOL        K_SIG
  N:0002H         SYMBOL        K_TMO
  N:0000H         SYMBOL        LONG_USR_INTR
  C:16C2H         SYMBOL        MAIN1
  C:16CCH         SYMBOL        MAIN1X
  C:16C7H         SYMBOL        MAIN2
  C:168DH         SYMBOL        NOEVENT
  C:15D3H         SYMBOL        NOROBINTIMEOUT
  C:15CAH         SYMBOL        NOTIMEOUT
  C:15C8H         SYMBOL        NOWAITTIMEOUT
  C:15FFH         SYMBOL        OS_SWITCH_TASK1
  D:0087H         SYMBOL        PCON
  D:00D0H         SYMBOL        PSW
  N:00FFH         SYMBOL        RAMTOP
BL51 BANKED LINKER/LOCATER V6.22.4.0                                                  12/30/2023  11:55:39  PAGE 45


  N:0080H         SYMBOL        RDY_EVENT
  C:1699H         SYMBOL        ROBINON
  C:1681H         SYMBOL        SIGNALOFF
  C:168DH         SYMBOL        SIGNALON
  N:0004H         SYMBOL        SIG_EVENT
  D:0081H         SYMBOL        SP
  I:0023H         SYMBOL        TASKSTATE
  D:0088H         SYMBOL        TCON
  B:0088H.5       SYMBOL        TF0
  B:0088H.7       SYMBOL        TF1
  D:008CH         SYMBOL        TH0
  D:008DH         SYMBOL        TH1
  C:1689H         SYMBOL        TIMEOUTON
  C:1589H         SYMBOL        TIMERINT
  C:15BAH         SYMBOL        TIMERLOOP
  I:0022H         SYMBOL        TIMERVAL
  N:0005H         SYMBOL        TIMESHARING
  D:008AH         SYMBOL        TL0
  D:008BH         SYMBOL        TL1
  D:0089H         SYMBOL        TMOD
  N:0008H         SYMBOL        TMO_EVENT
  B:0088H.4       SYMBOL        TR0
  B:0088H.6       SYMBOL        TR1
  C:000BH         LINE#         271
  C:1584H         LINE#         279
  C:1586H         LINE#         279
  C:1588H         LINE#         282
  C:1589H         LINE#         299
  C:158CH         LINE#         301
  C:158FH         LINE#         302
  C:1592H         LINE#         303
  C:1594H         LINE#         305
  C:1596H         LINE#         306
  C:1598H         LINE#         307
  C:159AH         LINE#         308
  C:159CH         LINE#         309
  C:159EH         LINE#         310
  C:15A0H         LINE#         311
  C:15A2H         LINE#         312
  C:15A4H         LINE#         316
  C:15A5H         LINE#         317
  C:15A7H         LINE#         318
  C:15A8H         LINE#         319
  C:15A9H         LINE#         320
  C:15ACH         LINE#         321
  C:15AEH         LINE#         322
  C:15AFH         LINE#         323
  C:15B1H         LINE#         324
  C:15B4H         LINE#         325
  C:15B6H         LINE#         329
  C:15B8H         LINE#         330
  C:15BAH         LINE#         331
  C:15BBH         LINE#         332
  C:15BCH         LINE#         333
  C:15BDH         LINE#         334
  C:15BFH         LINE#         335
  C:15C1H         LINE#         336
BL51 BANKED LINKER/LOCATER V6.22.4.0                                                  12/30/2023  11:55:39  PAGE 46


  C:15C2H         LINE#         337
  C:15C5H         LINE#         338
  C:15C7H         LINE#         339
  C:15C8H         LINE#         340
  C:15CAH         LINE#         341
  C:15CBH         LINE#         342
  C:15CDH         LINE#         344
  C:15CEH         LINE#         345
  C:15D0H         LINE#         360
  C:15D3H         LINE#         366
  C:15D4H         LINE#         367
  C:15D7H         LINE#         370
  C:15D9H         LINE#         371
  C:15DBH         LINE#         372
  C:15DDH         LINE#         373
  C:15DFH         LINE#         374
  C:15E1H         LINE#         375
  C:15E3H         LINE#         376
  C:15E5H         LINE#         377
  C:15E7H         LINE#         378
  C:15E9H         LINE#         379
  C:15EBH         LINE#         380
  C:15EDH         LINE#         381
  C:15EFH         LINE#         382
  C:15F1H         LINE#         387
  C:15F3H         LINE#         388
  C:15F4H         LINE#         389
  C:15F6H         LINE#         390
  C:15F7H         LINE#         391
  C:15F9H         LINE#         392
  C:15FBH         LINE#         393
  C:15FCH         LINE#         394
  C:15FDH         LINE#         395
  C:15FFH         LINE#         424
  C:1601H         LINE#         426
  C:1603H         LINE#         427
  C:1604H         LINE#         429
  C:1605H         LINE#         430
  C:1607H         LINE#         431
  C:1608H         LINE#         434
  C:1609H         LINE#         435
  C:160AH         LINE#         436
  C:160BH         LINE#         444
  C:160EH         LINE#         445
  C:1610H         LINE#         446
  C:1612H         LINE#         449
  C:1613H         LINE#         450
  C:1616H         LINE#         458
  C:1617H         LINE#         462
  C:1619H         LINE#         463
  C:161AH         LINE#         464
  C:161BH         LINE#         465
  C:161DH         LINE#         468
  C:161FH         LINE#         470
  C:1621H         LINE#         471
  C:1623H         LINE#         472
  C:1624H         LINE#         473
BL51 BANKED LINKER/LOCATER V6.22.4.0                                                  12/30/2023  11:55:39  PAGE 47


  C:1625H         LINE#         474
  C:1626H         LINE#         476
  C:1628H         LINE#         478
  C:1629H         LINE#         479
  C:162AH         LINE#         480
  C:162CH         LINE#         481
  C:162FH         LINE#         482
  C:1631H         LINE#         484
  C:1632H         LINE#         485
  C:1633H         LINE#         490
  C:1634H         LINE#         491
  C:1635H         LINE#         492
  C:1637H         LINE#         496
  C:1638H         LINE#         497
  C:1639H         LINE#         498
  C:163BH         LINE#         499
  C:163DH         LINE#         505
  C:163FH         LINE#         506
  C:1640H         LINE#         507
  C:1641H         LINE#         508
  C:1643H         LINE#         510
  C:1645H         LINE#         511
  C:1647H         LINE#         512
  C:1648H         LINE#         513
  C:1649H         LINE#         516
  C:164BH         LINE#         517
  C:164EH         LINE#         518
  C:1650H         LINE#         520
  C:1651H         LINE#         522
  C:1652H         LINE#         523
  C:1653H         LINE#         524
  C:1654H         LINE#         525
  C:1655H         LINE#         529
  C:1657H         LINE#         530
  C:1658H         LINE#         531
  C:165AH         LINE#         535
  C:165CH         LINE#         536
  C:165DH         LINE#         537
  C:165EH         LINE#         539
  C:1660H         LINE#         543
  C:1662H         LINE#         544
  C:1664H         LINE#         545
  C:1665H         LINE#         546
  C:1666H         LINE#         548
  C:1668H         LINE#         549
  C:166AH         LINE#         555
  C:166DH         LINE#         559
  C:166FH         LINE#         560
  C:1670H         LINE#         561
  C:1672H         LINE#         562
  C:1673H         LINE#         563
  C:1675H         LINE#         564
  C:1677H         LINE#         565
  C:1678H         LINE#         567
  C:167BH         LINE#         571
  C:167EH         LINE#         572
  C:1681H         LINE#         576
BL51 BANKED LINKER/LOCATER V6.22.4.0                                                  12/30/2023  11:55:39  PAGE 48


  C:1683H         LINE#         577
  C:1686H         LINE#         578
  C:1689H         LINE#         580
  C:168BH         LINE#         581
  C:168DH         LINE#         583
  C:168FH         LINE#         584
  C:1690H         LINE#         585
  C:1692H         LINE#         587
  C:1694H         LINE#         588
  C:1696H         LINE#         594
  C:1698H         LINE#         595
  C:1699H         LINE#         608
  C:169AH         LINE#         609
  C:169CH         LINE#         614
  C:169EH         LINE#         615
  C:16A0H         LINE#         616
  C:16A2H         LINE#         617
  C:16A4H         LINE#         618
  C:16A6H         LINE#         619
  C:16A8H         LINE#         620
  C:16AAH         LINE#         621
  C:16ACH         LINE#         622
  C:16AEH         LINE#         623
  C:16B0H         LINE#         624
  C:16B2H         LINE#         625
  C:16B4H         LINE#         626
  C:16B6H         LINE#         627
  C:16B8H         LINE#         628
  C:16B9H         LINE#         642
  C:16BBH         LINE#         643
  C:16BDH         LINE#         644
  C:16BFH         LINE#         645
  C:16C1H         LINE#         646
  C:16C2H         LINE#         647
  C:16C3H         LINE#         648
  C:16C5H         LINE#         649
  C:16C7H         LINE#         650
  C:16C9H         LINE#         651
  C:16CAH         LINE#         652
  C:16CCH         LINE#         653
  C:16CDH         LINE#         654
  C:16CEH         LINE#         655
  C:16CFH         LINE#         656
  C:16D0H         LINE#         657
  C:16D2H         LINE#         658
  C:16D4H         LINE#         659
  C:16D6H         LINE#         660
  C:16D9H         LINE#         661
  C:16DBH         LINE#         662
  C:16DCH         LINE#         663
  C:16DEH         LINE#         664
  C:16DFH         LINE#         665
  C:16E0H         LINE#         666
  C:16E2H         LINE#         668
  C:16E5H         LINE#         670
  C:16E8H         LINE#         671
  C:16EBH         LINE#         672
BL51 BANKED LINKER/LOCATER V6.22.4.0                                                  12/30/2023  11:55:39  PAGE 49


  C:16EEH         LINE#         673
  C:16F0H         LINE#         674
  C:16F2H         LINE#         675
  C:16F4H         LINE#         676
  -------         ENDMOD        ?RTX51_TINY_KERNAL

  -------         MODULE        ?C?FPADD
  C:004DH         PUBLIC        ?C?FPADD
  C:0049H         PUBLIC        ?C?FPSUB
  -------         ENDMOD        ?C?FPADD

  -------         MODULE        ?C?FPMUL
  C:013EH         PUBLIC        ?C?FPMUL
  -------         ENDMOD        ?C?FPMUL

  -------         MODULE        ?C?FPDIV
  C:0247H         PUBLIC        ?C?FPDIV
  -------         ENDMOD        ?C?FPDIV

  -------         MODULE        ?C?FCAST
  C:02EEH         PUBLIC        ?C?FCASTC
  C:02E9H         PUBLIC        ?C?FCASTI
  C:02E4H         PUBLIC        ?C?FCASTL
  -------         ENDMOD        ?C?FCAST

  -------         MODULE        ?C?CASTF
  C:0322H         PUBLIC        ?C?CASTF
  -------         ENDMOD        ?C?CASTF

  -------         MODULE        PRINTF
  X:02B9H         PUBLIC        ?_PRINTF?BYTE
  X:02B9H         PUBLIC        ?_SPRINTF?BYTE
  C:08BEH         PUBLIC        _PRINTF
  C:08B8H         PUBLIC        _SPRINTF
  -------         ENDMOD        PRINTF

  -------         MODULE        ?C?FPROUND
  C:03A3H         PUBLIC        ?C?FPROUND
  -------         ENDMOD        ?C?FPROUND

  -------         MODULE        ?C?FPCONVERT
  C:03E0H         PUBLIC        ?C?FPCONVERT
  -------         ENDMOD        ?C?FPCONVERT

  -------         MODULE        ?C?FTNPWR
  C:0515H         PUBLIC        ?C?FTNPWR
  -------         ENDMOD        ?C?FTNPWR

  -------         MODULE        ?C?CLDPTR
  C:0555H         PUBLIC        ?C?CLDPTR
  -------         ENDMOD        ?C?CLDPTR

  -------         MODULE        ?C?CLDOPTR
  C:056EH         PUBLIC        ?C?CLDOPTR
  -------         ENDMOD        ?C?CLDOPTR

  -------         MODULE        ?C?CSTPTR
BL51 BANKED LINKER/LOCATER V6.22.4.0                                                  12/30/2023  11:55:39  PAGE 50


  C:059BH         PUBLIC        ?C?CSTPTR
  -------         ENDMOD        ?C?CSTPTR

  -------         MODULE        ?C?IMUL
  C:05ADH         PUBLIC        ?C?IMUL
  -------         ENDMOD        ?C?IMUL

  -------         MODULE        ?C?ILDIX
  C:05BFH         PUBLIC        ?C?ILDIX
  -------         ENDMOD        ?C?ILDIX

  -------         MODULE        ?C?ILDPTR
  C:05D5H         PUBLIC        ?C?ILDPTR
  -------         ENDMOD        ?C?ILDPTR

  -------         MODULE        ?C?ILDOPTR
  C:0600H         PUBLIC        ?C?ILDOPTR
  -------         ENDMOD        ?C?ILDOPTR

  -------         MODULE        ?C?ULDIV
  C:0674H         PUBLIC        ?C?ULDIV
  -------         ENDMOD        ?C?ULDIV

  -------         MODULE        ?C?SLDIV
  C:30C1H         PUBLIC        ?C?SLDIV
  -------         ENDMOD        ?C?SLDIV

  -------         MODULE        ?C?LNEG
  C:0706H         PUBLIC        ?C?LNEG
  -------         ENDMOD        ?C?LNEG

  -------         MODULE        ?C?ULCMP
  C:0714H         PUBLIC        ?C?ULCMP
  -------         ENDMOD        ?C?ULCMP

  -------         MODULE        ?C?ULSHR
  C:0725H         PUBLIC        ?C?ULSHR
  -------         ENDMOD        ?C?ULSHR

  -------         MODULE        ?C?LSTPTR
  C:0738H         PUBLIC        ?C?LSTPTR
  -------         ENDMOD        ?C?LSTPTR

  -------         MODULE        ?C?LLDOPTR0
  C:0752H         PUBLIC        ?C?LLDOPTR0
  -------         ENDMOD        ?C?LLDOPTR0

  -------         MODULE        ?C?LSTXDATA
  C:0782H         PUBLIC        ?C?LSTXDATA
  -------         ENDMOD        ?C?LSTXDATA

  -------         MODULE        ?C?LSTKXDATA
  C:078EH         PUBLIC        ?C?LSTKXDATA
  -------         ENDMOD        ?C?LSTKXDATA

  -------         MODULE        ?C?PLDIXDATA
  C:07BFH         PUBLIC        ?C?PLDIXDATA
BL51 BANKED LINKER/LOCATER V6.22.4.0                                                  12/30/2023  11:55:39  PAGE 51


  -------         ENDMOD        ?C?PLDIXDATA

  -------         MODULE        ?C?PSTXDATA
  C:07D6H         PUBLIC        ?C?PSTXDATA
  -------         ENDMOD        ?C?PSTXDATA

  -------         MODULE        ?C?CCASE
  C:07DFH         PUBLIC        ?C?CCASE
  -------         ENDMOD        ?C?CCASE

  -------         MODULE        ?C?LLDIDATA0
  C:0805H         PUBLIC        ?C?LLDIDATA0
  -------         ENDMOD        ?C?LLDIDATA0

  -------         MODULE        ?C?LLDXDATA0
  C:0812H         PUBLIC        ?C?LLDXDATA0
  -------         ENDMOD        ?C?LLDXDATA0

  -------         MODULE        ?C?LLDPDATA0
  C:081EH         PUBLIC        ?C?LLDPDATA0
  -------         ENDMOD        ?C?LLDPDATA0

  -------         MODULE        ?C?LLDCODE0
  C:082BH         PUBLIC        ?C?LLDCODE0
  -------         ENDMOD        ?C?LLDCODE0

  -------         MODULE        ?C?LSTIDATA
  C:083BH         PUBLIC        ?C?LSTIDATA
  -------         ENDMOD        ?C?LSTIDATA

  -------         MODULE        ?C?LSTPDATA
  C:0847H         PUBLIC        ?C?LSTPDATA
  -------         ENDMOD        ?C?LSTPDATA

Program Size: data=66.2 xdata=875 code=13500
LINK/LOCATE RUN COMPLETE.  0 WARNING(S),  0 ERROR(S)
